:020000040800F2
:1000000098050020390100083F0A0008E1070008B0
:100010003D0A0008790200082516000800000000CB
:10002000000000000000000000000000191100089E
:100030007B02000800000000190B00089112000864
:100040005301000853010008530100085301000840
:100050005301000853010008530100085301000830
:100060005301000853010008530100085301000820
:100070005301000853010008530100085301000810
:100080005301000853010008530100085301000800
:1000900053010008530100085301000853010008F0
:1000A00053010008530100085301000853010008E0
:1000B00053010008530100085301000853010008D0
:1000C00053010008530100085301000853010008C0
:1000D00053010008530100085301000853010008B0
:1000E000950200085301000853010008530100085D
:1000F00053010008000000005301000853010008EC
:10010000530100085301000853010008530100087F
:10011000530100085301000853010008530100086F
:1001200053010008DFF80CD000F04AF800480047FF
:10013000D937000898050020064880470648004740
:10014000FEE7FEE7FEE7FEE7FEE7FEE7FEE7FEE787
:10015000FEE7FEE795120008250100082DE9F05F93
:100160000546002092469B46884606468146402426
:100170001BE0284641464746224600F042F85346D7
:100180005A46C01A914110D311461846224600F033
:1001900029F82D1A67EB01084F462246012000215D
:1001A00000F020F817EB00094E41201EA4F10104D5
:1001B000DFDC484631462A464346BDE8F09F000052
:1001C000064C074D06E0E06840F0010394E80700A4
:1001D00098471034AC42F6D3FFF7A8FFB8410008A7
:1001E000D8410008202A04DB203A00FA02F100205E
:1001F00070479140C2F1200320FA03F31943904065
:100200007047202A04DB203A21FA02F000217047CF
:1002100021FA02F3D040C2F120029140084319466E
:10022000704770B58C1810F8015B15F0070301D109
:1002300010F8013B2A1106D110F8012B03E010F849
:10024000016B01F8016B5B1EF9D12B0705D400236C
:10025000521E0DD401F8013BFAE710F8013BCB1A0E
:10026000921C03E013F8015B01F8015B521EF9D503
:10027000A142D8D3002070BDFEE7704701B4044806
:100280000099416041680029FCD101B0704700002D
:100290003000002010B54FF4005000F02FF8002877
:1002A0000AD006A001F0C0F90A4901200870BDE893
:1002B0001040400300F010B810BD0000696E746576
:1002C0007272757074207265636F72646564210D5B
:1002D0000A0000003800002010B5044614F07F4FDB
:1002E00000D124B94FF49371024802F0A7F80248F4
:1002F000046010BD743F00081404014070B504464A
:100300000025012C42D0022C40D0042C3ED0082CD9
:100310003CD0102C3AD0202C38D0402C36D0802C19
:1003200034D0B4F5807F31D0B4F5007F2ED0B4F551
:10033000806F2BD0B4F5006F28D0B4F5805F25D046
:10034000B4F5005F22D0B4F5804F1FD0B4F5004F54
:100350001CD0B4F5803F19D0B4F5003F16D0B4F5E9
:10036000802F13D0B4F5002F10D0B4F5801F0DD01E
:10037000B4F5001F0AD0B4F5800F07D0B4F5000F14
:1003800004D04FF48871054802F058F8044800681A
:10039000204200D00125284670BD0000743F0008AF
:1003A0001404014010B504462079002805D0042823
:1003B00003D085212E4802F041F86079082807D043
:1003C0000C2805D0102803D08621294802F036F8E1
:1003D000206810F07F4F00D118B98721244802F01F
:1003E0002DF8A07928B1012803D08821204802F0F7
:1003F00025F82048A17981B3016822689143016002
:10040000001D0168226891430160207900F180405D
:1004100000F58230016822681143016016490868BE
:100420002268904308600A1D106823689843106092
:100430006079102808D000F1804000F58230016812
:1004400022681143016010BD0868236818430860E2
:10045000106821680843106010BDFFE7207900F1A3
:10046000804000F58230016822689143016010BD30
:10047000743F0008000401400804014000B583B047
:100480000121084600F04AFB4FF4806000900120F3
:100490008DF8040000218DF806108DF80700032068
:1004A0008DF805006946024800F004F803B000BD6D
:1004B000000002402DE9F05F04460D460026A4F13D
:1004C0008040B0F5003026D0A4F18040B0F5013076
:1004D00021D0A4F18040B0F502301CD0A4F18040BE
:1004E000B0F5033017D0A4F18040B0F5043012D03D
:1004F000A4F18040B0F505300DD0A4F18040B0F5F6
:10050000063008D0A4F18040B0F5073003D0B921FF
:10051000334801F093FF286818B9BA21304801F038
:100520008DFF287948B1012807D0022805D003287B
:1005300003D0BB212A4801F081FFE87938B10128B6
:1005400005D0022803D0BC21254801F077FF4FF0E9
:10055000010A4FF0030B0AFA06F9286800EA0900BD
:10056000484537D1206877000BFA07F820EA0800E1
:100570002979B940084320602879012801D0022850
:1005800021D1687948B1012807D0022805D0032875
:1005900003D0D321124801F051FFA06820EA0800DF
:1005A0006979B9400843A060A87928B1012803D02F
:1005B000DD210B4801F042FFA08820EA0900A9795B
:1005C000B1400843A080E06820EA0800E979B9401A
:1005D0000843E060761C102EBDD3BDE8F09F0000FC
:1005E000BC3F000870B506460C461546A6F1804093
:1005F000B0F5003027D0A6F18040B0F5013022D010
:10060000A6F18040B0F502301DD0A6F18040B0F5D3
:10061000033018D0A6F18040B0F5043013D0A6F115
:100620008040B0F505300ED0A6F18040B0F5063020
:1006300009D0A6F18040B0F5073004D040F2212166
:100640002C4801F0FBFE14B3012C20D0022C1ED04C
:10065000032C1CD0042C1AD0052C18D0062C16D034
:10066000072C14D0082C12D0092C10D00A2C0ED034
:100670000B2C0CD00C2C0AD00D2C08D00E2C06D034
:100680000F2C04D040F222211A4801F0D7FEF5B118
:10069000012D1CD0022D1AD0032D18D0042D16D0F8
:1006A000052D14D0072D12D00A2D10D00B2D0ED0F1
:1006B0000E2D0CD0062D0AD0082D08D00C2D06D0FA
:1006C0000F2D04D040F223210A4801F0B7FE600745
:1006D000C10E05FA01F2E00806EB8000036A4FF054
:1006E0000F0C0CFA01F123EA01010162016A1143C6
:1006F000016270BDBC3F000870B504460D46A4F110
:100700008040B0F5003027D0A4F18040B0F5013032
:1007100022D0A4F18040B0F502301DD0A4F1804079
:10072000B0F5033018D0A4F18040B0F5043013D0F8
:10073000A4F18040B0F505300ED0A4F18040B0F5B2
:10074000063009D0A4F18040B0F5073004D040F263
:100750009F11054801F072FE25B94FF4D07102488F
:1007600001F06CFE658370BDBC3F000870B50446A7
:100770000D46A4F18040B0F5003027D0A4F18040B0
:10078000B0F5013022D0A4F18040B0F502301DD088
:10079000A4F18040B0F5033018D0A4F18040B0F54A
:1007A000043013D0A4F18040B0F505300ED0A4F190
:1007B0008040B0F5063009D0A4F18040B0F5073094
:1007C00004D04FF4C671054801F038FE25B940F257
:1007D0008D11024801F032FE258370BDBC3F000838
:1007E000FEE700005548544981675549C16755499E
:1007F000C0F8A810544901655449C0F8B4105449D0
:10080000C0F884105349C0F888105349C0F88C10C0
:100810005249C0F890105249C0F894105149C0F89C
:1008200098105149C0F89C105049C0F8A010504988
:10083000C0F8E4104F49C0F8E8104F49C0F8EC1078
:100840004E49C0F8F0104E49C0F8F4104D49C0F8B8
:10085000F8104D4941654D49C0F8AC104C49C0F8FD
:10086000B0104C4981654C49C1654C4901664C4901
:1008700041664C4981664C49C1664C4901674C4907
:1008800041674C4941644C4981644C49C1624C49BF
:10089000C0F8B8104B49C0F8BC104B49C0F8C410A0
:1008A0004A49C1644A49C0F8A4104A4941624A49C8
:1008B000C0F8801049490163494941634949C0F87A
:1008C000C010890601604849416048498160484933
:1008D000C1604849016148494161484981614849CD
:1008E000C16148490162484981634849C163484937
:1008F00001644849C0F8CC104749C0F8D0104749B6
:1009000081624749C0F8C8104649C0F8D41046492A
:10091000C0F8D8104549C0F8DC104549C0F8E010CF
:100920004449C0F8FC104FF02041C0F80011424982
:10093000C0F8041170470000002401403C00002072
:10094000002701400030024000740040002004E015
:1009500000600240086002401C60024030600240BB
:1009600044600240586002406C6002408060024077
:1009700000640240086402401C640240306402408B
:10098000446402405864024000040140003C0240BC
:100990000000F81F0000024000040240000802406E
:1009A000000C02400010024000180240001C0240EF
:1009B0000014024000540040005800400030004045
:1009C00000E100E000ED00E090ED00E0007000408C
:1009D000003802400028004000300140003800404C
:1009E000003C004010E000E000040040000800402F
:1009F000000C0040001000400014004000080140BE
:100A0000000C01400010014000380140004400404B
:100A100000480040004C004000500040002C0040C6
:100A200000240040047C00405C7C00400000014049
:100A3000002C014000000650040100A0FEE77047B2
:100A400070B504460F25E078002805D0012803D0B2
:100A50008E2121A001F0F2FC6078102803D38F21B1
:100A60001DA001F0EBFCA078102803D390211AA060
:100A700001F0E4FCE078012310B32648006800F49C
:100A8000E060C0F5E060C0F30720C0F1040125FA82
:100A900000F260788840A178114008430001217875
:100AA00001F1E02181F80004207800F01F0103FA31
:100AB00001F14009800000F1E020C0F8001170BD94
:100AC000207800F01F0103FA01F14009800000F1D5
:100AD000E020C0F8801170BD2E2E5C2E2E5C2E2ED4
:100AE0005C2E2E5C4C69627261726965735C535452
:100AF0004D33324C3178785F53746450657269704D
:100B0000685F4472697665725C7372635C6D697369
:100B1000632E63000CED00E07047000070B50446E2
:100B20000D460D48044200D124B940F254410B480F
:100B300001F084FC35B1012D04D040F25541074845
:100B400001F07CFC06481DB101682143016070BDC5
:100B50000168A143016070BD006FFFB4044000084C
:100B60001C38024070B504460D460D48044200D1C1
:100B700024B940F2A6410B4801F060FC35B1012DCB
:100B800004D040F2A741074801F058FC06481DB1C7
:100B900001682143016070BD0168A143016070BD1F
:100BA000C035014F044000082438024070B50446A7
:100BB0000D4624F01D0030F4B44000D124B940F2B9
:100BC00077410A4801F03AFC35B1012D04D04FF4C9
:100BD0008F61064801F032FC05481DB101682143D0
:100BE000016070BD0168A143016070BD0440000850
:100BF00020380240DFF8C4C0DCF8001001F00C011E
:100C0000ACF104034FF40042002929D004292FD06D
:100C1000082930D00C2931D01968C1F34231491C60
:100C200002FA01F10160DCF8001001F0F00109099D
:100C3000234B595C026822FA01F14160DCF8002084
:100C400002F4E062120A9A5C21FA02F28260DCF895
:100C5000002002F46052D20A9A5CD140C160704711
:100C60001968C1F34231491C02FA01F10160DAE767
:100C700014490160D7E714490160D4E7DCF800109B
:100C800001F47011DCF8002002F440020F4B03EB7A
:100C900091410978012303EB9252DCF8003003F410
:100CA00080332BB1084B5943B1FBF2F10160BAE735
:100CB000044B5943B1FBF2F10160B4E7083802403C
:100CC000090000200024F40000127A000000002037
:100CD00070B504460D46A4F18040B0F598300ED0B2
:100CE000A4F18040B0F5605009D0A4F18040B0F587
:100CF000705004D040F2DF110D4801F09FFBA5F5C4
:100D00003F40FF3807D0B5F5804F04D04FF4F07165
:100D1000074801F093FBB5F5804F04D0208820F4FC
:100D20008040208070BD208840F48040208070BDCD
:100D30004C40000870B504460D46A4F18040B0F563
:100D400098300ED0A4F18040B0F5605009D0A4F1E5
:100D50008040B0F5705004D04FF4CC710A4801F0D7
:100D60006DFB35B1012D04D040F29911064801F018
:100D700065FB25B1208840F04000208070BD2088B0
:100D800020F04000208070BD4C40000870B5054642
:100D90000C460026A5F18040B0F598300ED0A5F1A4
:100DA0008040B0F5605009D0A5F18040B0F570509A
:100DB00004D040F2A131104801F040FB802C15D046
:100DC000402C13D0202C11D0102C0FD0082C0DD07B
:100DD000042C0BD0022C09D0012C07D0B4F5807F55
:100DE00004D040F2A231044801F028FB28892042B7
:100DF00000D00126304670BD4C40000810B50446B6
:100E0000A4F18040B0F598300ED0A4F18040B0F548
:100E1000605009D0A4F18040B0F5705004D040F289
:100E20004121024801F00AFBA08910BD4C40000896
:100E300070B504460D46A4F18040B0F598300ED050
:100E4000A4F18040B0F5605009D0A4F18040B0F525
:100E5000705004D040F25121024801F0EFFAA58110
:100E600070BD00004C40000870B505460C46A5F169
:100E70008040B0F598300DD0A5F18040B0F56050BD
:100E800008D0A5F18040B0F5705003D0C0213D4896
:100E900001F0D4FA208860B1B0F5806F09D0B0F5C8
:100EA000004F06D0B0F5404F03D0C321354801F0C4
:100EB000C5FA6088B0F5827F04D018B1C4213148EA
:100EC00001F0BCFAA088B0F5006F04D018B1C521BC
:100ED0002C4801F0B3FAE08828B1022803D0C621DB
:100EE000284801F0ABFA208928B1012803D0C72196
:100EF000244801F0A3FA6089B0F5007F04D018B14E
:100F0000C821204801F09AFAA08988B108280FD09A
:100F100010280DD018280BD0202809D0282807D059
:100F2000302805D0382803D0C921164801F086FAA8
:100F3000E08928B1802803D0CA21124801F07EFA46
:100F4000208A18B9CB210F4801F078FA288800F4DC
:100F5000415021886288E3881143A2881A431143D3
:100F60002289114362891143A2891143E289114305
:100F700008432880A88B20F40060A883208A288258
:100F800070BD00004C400008F0B583B004460E462A
:100F90002648274950F8240051F82410084301211D
:100FA000FFF7BCFD2348012150F82400FFF7DAFDCC
:100FB0002148224D025D801E015D55F82400FFF797
:100FC00011FB1F482F1D025D801E015D57F8240094
:100FD000FFF708FB1B4830F81400009002208DF842
:100FE000040003208DF8050000208DF80600012084
:100FF0008DF8070055F824006946FFF75BFA1248A0
:1010000030F81400009057F824006946FFF752FAB0
:101010002D1F314655F8240000F000FA55F8240041
:10102000012100F06DF903B0F0BD0000F03E0008B2
:10103000F43E0008EC3E0008D53E000828000020E1
:10104000D63E0008DE3E0008E03E000870B586B0DF
:1010500004460E461F48012150F82400FFF75EFDAC
:1010600001210846FFF7A2FD00258DF814508DF8E8
:101070001750194830F814000490184804A950F883
:101080002400FFF717FA012E22D11548015D401EFA
:10109000005D00F043F8134830F8140002908DF81A
:1010A0000C5008208DF80D0001258DF80E5002A877
:1010B000FFF778F90C48005D8DF804000F208DF8DB
:1010C00005008DF806008DF8075001A8FFF7B8FC61
:1010D00006B070BDE83E0008DA3E0008200000209F
:1010E000D13E0008DC3E0008D23E000800B585B0C5
:1010F0004FF4E13100910021ADF80410ADF8061075
:10110000ADF80810ADF80C100C21ADF80A106946C6
:10111000FFF73AFF05B000BD7047000070B5054607
:101120000C46002D11D0012D0FD0022D0DD0032D16
:101130000BD0042D09D0062D07D0072D05D0052D85
:1011400003D0CD211D4801F079F90CB3012C1FD03B
:10115000022C1DD0032C1BD0042C19D0052C17D029
:10116000062C15D0072C13D0082C11D0092C0FD029
:101170000A2C0DD00B2C0BD00C2C09D00D2C07D029
:101180000E2C05D00F2C03D0CE210C4801F056F9BF
:10119000A007010F0F2000FA01F224F0030000F174
:1011A000804000F58030836823EA02028260826812
:1011B00005FA01F11143816070BD00009440000800
:1011C00083B000220292019200922C49086840F0FC
:1011D00001000860086800F002000190019818B949
:1011E0000298B0F5A04FF5D1086810F0020F02D0B8
:1011F0000120019000E00192019A2148012A07D1C3
:10120000026822F47D020260026842F488020260F1
:101210001C4A136843F004031360136843F002038D
:101220001360136843F001031360174A136843F017
:1012300080531360D314154A1360536813F0100FD2
:10124000FBD10268026002680260026802600A68FC
:1012500042F080720A600A6812F0007FFBD00168D9
:1012600021F003010160016841F0030101600C21DC
:10127000026831EA0202FBD103B070470038024035
:1012800008380240003C0240243802400070004010
:1012900000F02CB810B51048016841F4807101606D
:1012A0000E490A680E4B1A400A6002680D4B1A403C
:1012B0000260026822F480220260086820F47D0047
:1012C0000860091D00200860FFF77AFF06494FF00B
:1012D0000060086010BD000000380240083802407D
:1012E0000CC0FF88FEFFFEEE08ED00E003484168F9
:1012F000002902D04168491E41607047300000203B
:1013000070B504460D46A4F18040B0F59C3018D06D
:10131000A4F18040B0F5884013D0A4F18040B0F52E
:1013200090400ED0A4F18040B0F5984009D0A4F1CF
:101330008040B0F5A04004D04FF4C8710A4801F0D5
:101340007DF835B1012D04D040F29111064801F02D
:1013500075F825B1A08940F40050A08170BDA08926
:1013600020F40050A08170BDDC4000082DE9F0475A
:1013700005460C460026254FDFF89480DFF8949050
:10138000BD4212D0454510D04D450ED0A5F180404C
:10139000B0F5984009D0A5F18040B0F5A04004D048
:1013A00040F2F5411C4801F049F8012C18D0802C7E
:1013B00016D0402C14D0202C12D0102C10D0B4F504
:1013C000807F0DD0B4F5007F0AD0082C08D0042C03
:1013D00006D0022C04D040F2F6410F4801F02EF85E
:1013E000B4F5007F0AD1BD4208D0454506D04D4531
:1013F00004D040F2FB41084801F020F82888204240
:1014000000D001263046BDE8F087000000380140DA
:101410000044004000480040DC4000082DE9F04155
:1014200084B004460D46614E614FDFF88881B442B6
:1014300011D0BC420FD044450DD0A4F18040B0F58E
:10144000984008D0A4F18040B0F5A04003D0E2213C
:10145000594800F0F3FF28685849401E884203D3DA
:10146000E321554800F0EAFFA88830B1B0F5805F6D
:1014700003D0E421504800F0E1FFE88860B1B0F506
:10148000805F09D0B0F5005F06D0B0F5405F03D0B3
:10149000E521494800F0D2FF288948B1B0F5806FB6
:1014A00006D0B0F5C06F03D0E621434800F0C6FF78
:1014B000688930F00C0100D118B9E7213E4800F0EE
:1014C000BDFFA88960B1B0F5807F09D0B0F5007F7D
:1014D00006D0B0F5407F03D0E821374800F0AEFFDA
:1014E000A88948B1B44207D0BC4205D0444503D0D6
:1014F000ED21314800F0A2FF208A20F44050E98815
:1015000008432082A08920F4037020F4A050A98809
:101510002A8911436A8910430843A081A08A20F4D4
:101520004070A9890843A0826846FFF763FBB44274
:1015300001D1039800E00298A18911F4004F08D06E
:1015400000EBC00101EB001029684900B0FBF1F08D
:1015500007E000EBC00101EB001029688900B0FB37
:10156000F1F0174AA2FB0031490909010B096FF09C
:10157000180C03FB0CF300EB8300A38913F4004F5A
:101580004FF0320307D003EBC000A2FB0020C0F3F2
:101590004210084306E003EB0010A2FB0020C0F35A
:1015A00043100843208104B0BDE8F08100380140B9
:1015B0000044004000480040DC40000800093D00B5
:1015C0001F85EB5170B504460D46A4F18040B0F57F
:1015D0009C3018D0A4F18040B0F5884013D0A4F11D
:1015E0008040B0F590400ED0A4F18040B0F5984016
:1015F00009D0A4F18040B0F5A04004D04FF40571AB
:10160000074800F01BFFB5F5007F04D340F2152119
:10161000034800F013FFC5F30800A08070BD000070
:10162000DC400008FEE700000FB4054B10B503A92D
:10163000044A029800F018F810BC5DF814FB000092
:10164000A92400087401002002E008C8121F08C184
:10165000002AFAD170477047002001E001C1121F33
:10166000002AFBD1704700002DE9FF4F8DB00F46D7
:101670000546002606E025280BD0DDE90F1290472D
:101680006D1C761C28780028F5D111B03046BDE8D5
:10169000F08F0024A246A1460122EC4900E0044359
:1016A00015F8013F203B02FA03F00842F7D12878F1
:1016B0002A2810D06FF02F022878A0F130010929D4
:1016C00014D80AEB8A0102EB410144F0020400EB5A
:1016D000010A6D1CF0E701CF5FEA000A03D544F46C
:1016E0000054CAF1000A44F002046D1C28782E2828
:1016F00017D115F8010F44F004042A280ED06FF01A
:101700002F022878A0F1300109290AD809EB8901B4
:1017100002EB410100EB01096D1CF2E757F8049B55
:101720006D1C28786C280FD006DC4C2817D0682850
:101730000DD06A2814D104E0742810D07A280FD173
:101740000DE044F400140AE044F4801401E044F491
:1017500040146978814202D104F580146D1C6D1C1F
:101760002A786E2A1FD00CDC632A31D004DC002AD0
:101770008BD0582A11D1A3E0642A68D0692A0CD1F1
:1017800065E0732A2ED004DC6F2A73D0702A04D14E
:101790009BE0752A6FD0782A6ED01046DDE90F12D3
:1017A0009047761C50E1C4F30250022806D003286B
:1017B00009D0042801CF09D0066045E101CFF11717
:1017C000C0E9006140E101CF06803DE106703BE1E8
:1017D00017F8040B8DF8000000208DF80100EB468F
:1017E000012003E057F804BB4FF0FF3061074FF0D2
:1017F000000102D40DE008F10101884649450FDAE5
:101800008045F8DB1BF808100029F4D108E008F146
:10181000010188468142FADB1BF808100029F6D145
:10182000DDE90F23AAEB08008146214600F036F9D6
:10183000304400EB080604E0DDE90F121BF8010B51
:101840009047B8F10108F7D221464846F7E00A214F
:10185000C4F302534FF0000B0891022B04D001CFC8
:10186000C117032B09D00AE0FF1D27F00707F7E88F
:10187000020108E032E01FE020E000B2C117042BB3
:1018800001D140B2C117031E71F1000307DA4FF016
:10189000000CD0EB0C006CEB01012D2302E02305C2
:1018A00004D52B238DF82430012303E0E30701D076
:1018B0002023F7E7984658E00A2110E010210EE0B7
:1018C00010204FF0000B08900CE010214FF0000B9F
:1018D00044F004044FF00809089103E008214FF098
:1018E000000B0891C4F30253022B04D001CF002156
:1018F000032B06D006E0FF1D27F00707F7E80201DB
:1019000003E080B2042B00D1C0B24FF000082307DF
:101910002BD5702A07D0DDF820C08CF0100C5CEAC3
:101920000B0C05D00EE040238DF82430012308E095
:1019300050EA010306D030238DF824308DF825209D
:1019400002239846DDF820C08CF0080C5CEA0B0CF2
:101950000BD150EA010301D1630706D530238DF87E
:1019600024304FF00108A9F10109582A04D038A207
:101970000B9208AA0A920BE03AA2F9E75B46089A92
:10198000FEF7ECFB0B9B9B5C0A9A521E0A921370AB
:1019900050EA0102F2D10A98ADEB000000F1200BF1
:1019A000600702D524F4803401E04FF00109D945E5
:1019B00002DDA9EB0B0000E0002000EB0B0141442D
:1019C0000890AAEB010AE00306D4DDE90F232146C3
:1019D000504600F063F806444FF0000908E009A9FA
:1019E00011F80900DDE90F12904709F10109761C91
:1019F000C145F4DBE0030CD5DDE90F232146504659
:101A000000F04CF8064404E0DDE90F123020904766
:101A1000761C0899481E08900029F5DC08E00A9811
:101A20000A990078491C0A91DDE90F129047761C4B
:101A3000BBF10001ABF1010BF1DC21465046DDE9C1
:101A40000F2300F019F806446D1C1BE6092801005D
:101A50003031323334353637383961626364656624
:101A600000000000303132333435363738394142E6
:101A700043444546000000002DE9F041044600259E
:101A80001E461746880404D405E039462020B04796
:101A90006D1C641EF9D52846BDE8F0812DE9F041A2
:101AA000044600251E469046C80301D5302700E0B5
:101AB0002027880404D505E041463846B0476D1C10
:101AC000641EF9D52846BDE8F081000070B50646D1
:101AD0000024074D285740F48071304600F0E0F9AB
:101AE000002803DB611C4CB23E2CF3DB70BD000010
:101AF000343F000810B40022074B00EB820453F877
:101B000022C0C4F810C0521C0F2AF6DB0170034932
:101B1000416010BC00207047F83E000844010020DE
:101B200010B504461949E16091F9000091F90320CC
:101B300040EA820091F9022091F90110D20042EAB4
:101B4000011140EA01021249204600F093FA0028F0
:101B50001ADBE0680F49B0F90420204600F08AFA49
:101B6000002811DBE0680C49B0F90620204600F09F
:101B700081FA002808DBE0680849B0F9082020460F
:101B8000BDE8104000F076BA10BD000088010020CA
:101B900045010B0048020C004A020D004C020E00E9
:101BA000C0F30740704710B5002908D0012906D0BE
:101BB0004FF4B07100F074F9C0F3400010BD490655
:101BC0000A0EBDE8104002234FF4B07100F092B944
:101BD00010B501290AD0022908D040F2611100F0A5
:101BE0005FF9002801DBC0F3011010BD89078A0EE0
:101BF000BDE81040302340F2611100F07BB910B510
:101C000003460C46202917D8C81701EB907020F026
:101C10000300081A30B1022801DA241A02E0C0F1E8
:101C200004000444621E4FF4B871184600F022FA12
:101C3000002800DB204610BDBDE810404FF4B8710D
:101C4000184600F02DB9000010B504468648A06083
:101C500001231A4640F25F11204600F04BF900289C
:101C60007EDBA0684FF4AF718278204600F002FA64
:101C7000002875DBA06840F21511407800F00702DB
:101C8000204600F0F7F900286ADBA06810234FF423
:101C9000847100780007020E204600F02BF900281E
:101CA0005EDBA068602340F27311C0788007420EAB
:101CB000204600F01FF9002852DBA068C0234FF433
:101CC000B97100798007020E204600F013F9002850
:101CD00046DBA068E023654940794007020E2046B4
:101CE00000F008F900283BDB204600F09FF90028AF
:101CF00036DBA068017951B9807940238007020E54
:101D000040F25F11204600F0F5F8002828DBA068BB
:101D10004FF4B27190F90720204600F0ABF900288B
:101D20001EDBA06840F2651190F90820204600F003
:101D3000A1F9002814DBA0684FF4B37190F90920D1
:101D4000204600F097F900280ADBA06840F26711EE
:101D500090F90A20204600F08DF9002800DB00E011
:101D600081E0A06890F90B102046FFF748FF00289B
:101D700079DBA06880234FF4B771007BC007020EA7
:101D8000204600F0B7F800286DDBA0680C2340F275
:101D90005F11407B8007020F204600F0ABF800285F
:101DA00061DBA068202340F25F11807B4007020EB8
:101DB000204600F09FF8002855DBA06890F90F102E
:101DC0002046FFF7F0FE00284DDBA06890F91110C7
:101DD00090F9102090F9143041EA420190F9122054
:101DE00090F91300920042EAC302114341EA001243
:101DF0001F49204600F03EF9002834DB204600F061
:101E000015F900282FDBA0680221407D00F00300B7
:101E100041EA00124FF4C171204600F02BF900286E
:101E200021DBA06840F28311807D00F0030040F0C8
:101E30003002204600F01EF9002814DB0121204664
:101E4000FFF7C6FE00280EDB0221204600F012F844
:101E5000002808DB20460123BDE81040002240F2A4
:101E60005F1100F047B810BD5B01002014010600AF
:101E70003A01080010B500240E2908D201F00F0223
:101E80000F2340F2611100F035F8204610BD40F2FA
:101E9000611100F005F80028F8DB00F00F0010BD1C
:101EA0002DE9F84381464FF00008CDF80080002668
:101EB0000025C8B200F50044C1F30727002F16D94A
:101EC000200A8DF800008DF801408DF802806946E7
:101ED000484601F08DFE00280ADB641E30029DF8A2
:101EE000021041EA0006681CC5B2BD42E8D3304684
:101EF000BDE8F8832DE9F04104460E4615461F461D
:101F00003046FFF74DFE002803DD04EB8000007C27
:101F100006E031462046FFF7C3FF00280ADBC0B2C7
:101F2000B84340EA05023146204600F0A3F80028F5
:101F300000DB0020BDE8F08110B50446204600F02B
:101F400061F83C224FF48071204600F093F800289D
:101F500050DB606820234FF4847100784007020E44
:101F60002046FFF7C7FF002844DB606890F90110A6
:101F7000807800F0030041EA00121F49204600F07B
:101F800079F8002836DB6068017990F9032001F0C8
:101F9000070161F3DF021949204600F06BF80028C1
:101FA00028DB60681649407900F01F02204600F0E7
:101FB00061F800281EDB606840F2211180798007FB
:101FC000C20E204600F056F8002813DB204600F031
:101FD0002DF800280EDB2046FFF736FE002809DB2F
:101FE0002046FFF79DFD002804DB2046BDE8104099
:101FF00000F01CB810BD0000090101000B01020037
:102000001801070010B504463C224FF480712046A9
:1020100000F030F8002808DB4FF480712046FFF70D
:102020003FFF002801DB1828F6D110BD70B505462A
:102030004FF6FF740122E111284600F01BF800283A
:1020400010DB40F2FF112846FFF72AFF002809DBCA
:1020500040B2641E012801D1002CF2D102A0FFF78A
:10206000E3FA002070BD00007472616E73666572E1
:10207000210D0A002DE9F84380461746002500206F
:1020800000900846FFF78CFD002802DD08EB800277
:102090001761CCB2C1F30726002E17D9701B401E62
:1020A000C00047FA00F0210A8DF800108DF80140B9
:1020B0008DF802006946404601F0A2FD002805DBCC
:1020C000611E8CB2691CCDB2B542E7D3BDE8F8837E
:1020D00070B504460E46304600F07AF92078314655
:1020E00000F0ECF86078314600F0E8F84BF6FF704D
:1020F00000F036F83146FF2000F0F2F805464FF4C4
:10210000804000F02DF8304600F02CF92846A570EC
:102110000246617802A0FFF787FA284670BD0000EA
:102120005B2A5D526561642066726F6D2030782590
:102130003032582C2056616C75652030782530324D
:10214000582E200D0A00000010B500F019F84124A7
:10215000204600F007F9601CC4B2482CF8D910BD25
:10216000A0F53F42FF3A03D1034A1388022BFCD16A
:1021700001460248FEF7ACBD083C0040003C004070
:102180002DE9F04188B001210620FEF7C7FC0121AE
:10219000C803FEF7E7FC4FF48060069002208DF83C
:1021A0001C0001258DF81D5000248DF81E408DF86F
:1021B0001F40DFF8F88006A94046FEF77BF9EF02E2
:1021C000069706A94046FEF775F92E03069606A95E
:1021D0004046FEF76FF9042006908DF81C508DF8EC
:1021E0001E408DF81F508DF81D50314D06A9284610
:1021F000FEF760F9069706A92846FEF75BF90696F2
:1022000006A92846FEF756F9A815069006A94046E5
:10221000FEF750F94020069006A94046FEF74AF91D
:102220002020069006A94046FEF744F90696214D67
:1022300006A92846FEF73EF9069706A92846FEF7A6
:1022400039F906220A214046FEF7CCF906220B2175
:102250004046FEF7C7F906220C214046FEF7C2F9B8
:102260004FF44040ADF804004FF48270ADF8060022
:10227000ADF80840ADF80A40ADF80C406815ADF86F
:102280000E003020ADF81000ADF812400720ADF878
:102290001400094C01A92046FEF7E6FD0121204665
:1022A000FEF748FD08B0BDE8F081000000080240DC
:1022B0000004024000000240003C004070B50546AA
:1022C000064C02212046FEF761FD0028F9D0294680
:1022D0002046BDE87040FEF7ABBD0000003C00406A
:1022E00010B5064C01212046FEF750FD0028F9D01C
:1022F0002046FEF783FDC0B210BD0000003C004048
:1023000070B504460D46284600F062F8207829464C
:10231000FFF7D4FF60782946FFF7D0FFA078294661
:10232000FFF7CCFF0120FDF7A9FF284600F01AF8BF
:10233000A2786178BDE8704001A0FFF775B9000090
:102340005B2A5D577269746520746F203078253080
:1023500032582C2056616C75652030782530325803
:102360002E0D0A00A0F141011648174A174B082903
:1023700027D2DFE801F004070B0F14181C210421F9
:10238000FEF7F4B94FF40061FEF7F0B94FF4805155
:10239000FEF7ECB94FF480711046FEF7E7B9402123
:1023A0001046FEF7E3B920211046FEF7DFB94FF4DF
:1023B00080511846FEF7DAB94FF400611846FEF76F
:1023C000D5B97047000402400008024000000240F6
:1023D000A0F141011648174A174B082927D2DFE818
:1023E00001F004070B0F14181C210421FEF784B917
:1023F0004FF40061FEF780B94FF48051FEF77CB9CD
:102400004FF480711046FEF777B940211046FEF771
:1024100073B920211046FEF76FB94FF4805118466A
:10242000FEF76AB94FF400611846FEF765B97047C8
:1024300000040240000802400000024004460D462D
:1024400005A0FFF7F1F821460DA0FFF7EDF82946AA
:1024500010A0FFF7E9F8FEE70A0D2057726F6E67CC
:1024600020706172616D657465722076616C75654E
:10247000206465746563746564206F6E0D0A0000E6
:102480002020202020202066696C65202025730DE7
:102490000A000000202020202020206C696E65208A
:1024A0002025640D0A00000070B504460E4DE1B20F
:1024B0002846FFF787F80D48006810F0010F0AD092
:1024C0000B48006810F0010F05D04FF06040016824
:1024D0000029FCD0047040212846FEF747FF002861
:1024E000F9D0204670BD000000440040800E00E09E
:1024F000000E00E0F0B58BB0054640F2FF7020EA18
:1025000001012A208DF8180000208DF81900880A92
:1025100000EB4002C1F3402000EB400002EB8002E0
:10252000C1F3002000EB400002EB0012C1F3C01029
:1025300000EB400002EB80108DF81A00C1F3801010
:1025400000EB4002C1F3401000EB400002EB8002C0
:10255000C1F3001000EB400002EB0012C1F3C00019
:1025600000EB400002EB80108DF81B00C1F38000EF
:1025700000EB4002C1F3400000EB400002EB8002A0
:1025800001F0010000EB400002EB00108DF81C0090
:102590002A46691C1CA0FFF747F8002406AF621CFE
:1025A0003B5D691C24A0FFF73FF8641C052CF6DB9B
:1025B0002B460522012106A801F024FC2B4605220A
:1025C000012102A801F03CFB2B46052202A906A826
:1025D00000F07AFB28B1691C21A0FFF725F80BB0A9
:1025E000F0BD691C2CA0FFF71FF8002402AE621C8E
:1025F000305D00903B5D691C33A0FFF715F8641C4B
:10260000052CF4DB0BB0F0BD5B25642E302E305D65
:10261000204C54433639353220617578696C6C61D1
:10262000727920256420476C6F62616C20436F6E65
:102630006669673A0D0A00005B25642E302E305D16
:102640002009414444520930782530325809564116
:102650004C5545093078253032580D0A00000000ED
:102660005B25642E302E315D2053657474696E676E
:10267000207375636365737366756C2E20436F6E8C
:1026800073697374656E63792076657269666965CE
:10269000642E0D0A000000005B25642E302E315D93
:1026A0002053657474696E67206572726F722E2094
:1026B000436F6E73697374656E6379206E6F7420F7
:1026C0006D65742E0D0A00005B25642E302E315D81
:1026D0002009414444520930782530325809545871
:1026E000093078253032580952580930782530326F
:1026F000580D0A002DE9F0418AB005460C460C2021
:1027000000EB8200C6B299208DF81800802000EB03
:1027100014208DF819008DF81A4003F03F008DF851
:102720001B0013462A46691C21A0FEF77DFF2246A6
:10273000691C2CA0FEF778FF002406AF32193B5D20
:10274000691C38A0FEF770FF641C042CF6DB2B46D6
:102750000422314606A801F055FB2B4604223146DF
:1027600002A801F06DFA2B46042202A906A800F087
:10277000ABFA30B1691C35A0FEF756FF0AB0BDE8D0
:10278000F081691C3FA0FEF74FFF00240DF10808FF
:10279000321918F8040000903B5D691C45A0FEF753
:1027A00043FF641C042CF3DB0AB0BDE8F081000099
:1027B0000D0A5B25642E322E305D204C5443363991
:1027C000353220617578696C6C61727920256420DE
:1027D0004F55545F256420436F6E6669673A0D0A52
:1027E000000000005B25642E322E305D20546869A5
:1027F0007320697320612044434C4F434B20776919
:1028000074682064656C6179206F662025642056A9
:10281000434F2068616C662D6379636C65732E0D80
:102820000A0000005B25642E322E305D20094144F1
:102830004452093078253032580956414C554509E3
:102840003078253032580D0A000000005B25642ED8
:10285000322E315D2053657474696E672073756321
:102860006365737366756C2E20436F6E7369737442
:10287000656E63792076657269666965642E0D0AF6
:10288000000000005B25642E322E315D20536574FC
:1028900074696E67206572726F722E20436F6E735B
:1028A000697374656E6379206E6F74206D65742E24
:1028B0000D0A00005B25642E322E315D2009414453
:1028C0004452093078253032580954580930782557
:1028D000303258095258093078253032580D0A00E4
:1028E0002DE9F0418AB005460C460C2000EB820031
:1028F000C6B29C208DF81800E02000EB14208DF863
:1029000019008DF81A4000208DF81B0013462A4646
:10291000691C21A0FEF788FE2246691C2BA0FEF749
:1029200083FE002406AF32193B5D691C37A0FEF719
:102930007BFE641C042CF6DB2B460422314606A8E1
:1029400001F060FA2B460422314602A801F078F922
:102950002B46042202A906A800F0B6F930B1691C82
:1029600034A0FEF761FE0AB0BDE8F081691C3FA00B
:10297000FEF75AFE00240DF10808321918F8040079
:1029800000903B5D691C45A0FEF74EFE641C042CC4
:10299000F3DB0AB0BDE8F0810D0A5B25642E322E10
:1029A000305D204C54433639353220617578696C7E
:1029B0006C617279202564204F55545F2564204353
:1029C0006F6E6669673A0D0A000000005B25642E91
:1029D000322E305D20546869732069732061205362
:1029E000595352454620776974682064656C617953
:1029F000206F662025642056434F2068616C662D49
:102A00006379636C65732E0D0A0000005B25642EEC
:102A1000322E305D2009414444520930782530324D
:102A2000580956414C5545093078253032580D0A21
:102A3000000000005B25642E322E315D205365744A
:102A400074696E67207375636365737366756C2E46
:102A500020436F6E73697374656E63792076657257
:102A600069666965642E0D0A000000005B25642E0E
:102A7000322E315D2053657474696E672065727201
:102A80006F722E20436F6E73697374656E63792065
:102A90006E6F74206D65742E0D0A00005B25642E28
:102AA000322E315D200941444452093078253032BC
:102AB000580954580930782530325809525809308D
:102AC00078253032580D0A00F0B58BB00546CC2081
:102AD0008DF8180001208DF8190000208DF81A00DB
:102AE00014218DF81B1005218DF81C108DF81D0088
:102AF0002A46691C1CA0FEF797FD002406AEA21D05
:102B0000335D691C23A0FEF78FFD641C062CF6DBE9
:102B100006222B46114606A801F074F906222B4620
:102B2000114602A801F08CF82B46062202A906A83D
:102B300000F0CAF828B1691C20A0FEF775FD0BB0A3
:102B4000F0BD691C2BA0FEF76FFD002402AFA21D93
:102B5000385D0090335D691C32A0FEF765FD641C92
:102B6000062CF4DB0BB0F0BD5B25642E312E305DFE
:102B7000204C54433639353220617578696C6C616C
:102B800072792025642053525120436F6E66696725
:102B90003A0D0A005B25642E312E305D2009414438
:102BA0004452093078253032580956414C55450970
:102BB0003078253032580D0A000000005B25642E65
:102BC000312E315D2053657474696E6720737563AF
:102BD0006365737366756C2E20436F6E73697374CF
:102BE000656E63792076657269666965642E0D0A83
:102BF000000000005B25642E312E315D205365748A
:102C000074696E67206572726F722E20436F6E73E7
:102C1000697374656E6379206E6F74206D65742EB0
:102C20000D0A00005B25642E312E315D20094144E0
:102C300044520930782530325809545809307825E3
:102C4000303258095258093078253032580D0A0070
:102C500070B504462146382001F013F8054615F0FA
:102C6000020F06D02B462246611C0648FEF7DCFC0C
:102C700005E02B462246611C03A0FEF7D5FC284642
:102C800070BD0000704100085B25642E302E305D61
:102C9000204C54433639353220617578696C6C614B
:102CA0007279202564204E4F5420646574656374E6
:102CB00065642E204F75747075743A203078253015
:102CC00032580D0A0000000030B44FF0000C002311
:102CD000002A0ADDC45CCD5CAC4203D00CF1010CCF
:102CE0000CF0FF0C5B1C9342F4DBBCF1000F02D034
:102CF00030BC0020704730BC0120704770B50446DE
:102D00000D462146002000F0BCFF10F0150F07D043
:102D100025B12246611C07A0FEF786FC012070BD8C
:102D20002DB103462246611C0DA0FEF77DFC00205C
:102D300070BD00005B25642E302E305D204C544366
:102D40003639353220617578696C6C61727920256D
:102D5000642053544154204F4B2E0D0A00000000B4
:102D60005B25642E302E305D204C5443363935328D
:102D700020617578696C6C617279202564205354E8
:102D80004154204552524F522E204F757470757425
:102D90003A203078253032580D0A000010B52CA0AA
:102DA000FEF742FC002280210D2001F048F80022AD
:102DB000C021112001F043F800228021152001F0EC
:102DC0003EF80022C021192001F039F8002201212B
:102DD0000B2001F034F80A20FDF750FA00221146CA
:102DE0000B2001F02CF8002211460D2001F027F8ED
:102DF00000221146152001F022F800220C210B20A0
:102E000001F01DF80A20FDF739FA02E00120FDF774
:102E100035FA01210846FFF771FF0028F6D001219D
:102E20000220FFF76BFF0028F0D0002201210B20C9
:102E300001F005F80A20FDF721FA002211460B20C7
:102E400000F0FDFFBDE810400EA0FEF7EDBB000056
:102E50005B342E302E305D205374617274696E675E
:102E60002073796E63696E67206D6173746572207B
:102E7000616E6420617578696C6C61726965732E2E
:102E80002E2E00000946696E69736865642E0D0A6E
:102E90000000000070B588B008208DF810000220F6
:102EA0008DF8110000208DF81200FF208DF813001E
:102EB0003F208DF814001AA0FEF7B6FB002404ADE5
:102EC000611C2A5D1FA0FEF7AFFB641C052CF7DB1D
:102ED00000230522012104A800F094FF002305220D
:102EE0000121684600F0ACFE0522694604A800F006
:102EF00019FC20B11CA0FEF797FB08B070BD27A0FD
:102F0000FEF792FB00246E462A5D335D611C2FA004
:102F1000FEF78AFB641C052CF6DB08B070BD0000D0
:102F20005B312E302E305D204C5443363935332002
:102F3000476C6F62616C20436F6E6669673A0D0A79
:102F4000000000005B312E302E305D2009414444EA
:102F500052093078253032580956414C55450930D0
:102F600078253032580D0A005B312E302E315D202D
:102F700053657474696E67207375636365737366F4
:102F8000756C2E20436F6E73697374656E63792060
:102F900076657269666965642E0D0A005B312E30B4
:102FA0002E315D2053657474696E67206572726F8F
:102FB000722E20436F6E73697374656E6379206E31
:102FC0006F74206D65742E0D0A0000005B312E3089
:102FD0002E315D2009414444520930782530325861
:102FE0000954580930782530325809525809307838
:102FF000253032580D0A00002DE9F04788B000272F
:103000008DF810704FF080088DF811808DF81270D7
:103010008DF8137073A0FEF707FB002404AD04F1D4
:103020000C012A5D77A0FEF7FFFA641C042CF6DB86
:10303000002304220C2104A800F0E4FE0023042253
:103040000C21684600F0FCFD0422694604A800F04B
:1030500069FB6E4618B174A0FEF7E6FA0DE07FA09A
:10306000FEF7E2FA002404F10C01335D2A5D87A02B
:10307000FEF7DAFA641C042CF5DB8DF810704FF0C3
:10308000C0098DF811904FF00E0A8DF812A08DF83E
:10309000137089A0FEF7C8FA002404F110012A5D1C
:1030A0008DA0FEF7C1FA641C042CF6DB0023042279
:1030B000102104A800F0A6FE002304221021684677
:1030C00000F0BEFD0422694604A800F02BFB18B1F5
:1030D0008AA0FEF7A9FA0DE095A0FEF7A5FA002454
:1030E00004F11001335D2A5D9DA0FEF79DFA641C7A
:1030F000042CF5DB8DF810708DF811808DF81270AE
:103100008DF81370A1A0FEF78FFA002404F11401CA
:103110002A5DA6A0FEF788FA641C042CF6DB0023C7
:103120000422142104A800F06DFE002304221421BF
:10313000684600F085FD0422694604A800F0F2FA12
:1031400018B1A3A0FEF770FA0DE0AEA0FEF76CFA7E
:10315000002404F11401335D2A5DB6A0FEF764FA81
:10316000641C042CF5DB8DF810708DF811908DF82F
:1031700012A08DF81370BAA0FEF756FA002404F1DD
:1031800018012A5DBEA0FEF74FFA641C042CF6DB82
:1031900000230422182104A800F034FE0023042296
:1031A0001821684600F04CFD0422694604A800F08E
:1031B000B9FA28B1BBA0FEF737FA08B0BDE8F0872E
:1031C000C5A0FEF731FA002404F11801335D2A5D31
:1031D000CDA0FEF729FA641C042CF5DB08B0BDE88D
:1031E000F08700005B312E322E305D204C54433688
:1031F000393533204F55545F3020436F6E66696711
:103200003A0D0A005B312E322E305D2009414444D4
:1032100052093078253032580956414C554509300D
:1032200078253032580D0A005B312E322E315D2068
:1032300053657474696E6720737563636573736631
:10324000756C2E20436F6E73697374656E6379209D
:1032500076657269666965642E0D0A005B312E32EF
:103260002E315D2053657474696E67206572726FCC
:10327000722E20436F6E73697374656E6379206E6E
:103280006F74206D65742E0D0A0000005B312E32C4
:103290002E315D200941444452093078253032589E
:1032A0000954580930782530325809525809307875
:1032B000253032580D0A00005B312E332E305D2050
:1032C0004C544336393533204F55545F3120436FCA
:1032D0006E6669673A0D0A005B312E332E305D2031
:1032E0000941444452093078253032580956414C3E
:1032F0005545093078253032580D0A005B312E33A0
:103300002E315D2053657474696E67207375636335
:1033100065737366756C2E20436F6E736973746585
:103320006E63792076657269666965642E0D0A00A0
:103330005B312E332E315D2053657474696E6720C6
:103340006572726F722E20436F6E73697374656E4F
:103350006379206E6F74206D65742E0D0A00000075
:103360005B312E332E315D200941444452093078BF
:1033700025303258095458093078253032580952CE
:1033800058093078253032580D0A00005B312E3450
:103390002E305D204C544336393533204F55545F21
:1033A0003220436F6E6669673A0D0A005B312E3436
:1033B0002E305D200941444452093078253032587E
:1033C0000956414C5545093078253032580D0A00D0
:1033D0005B312E342E315D2053657474696E672025
:1033E0007375636365737366756C2E20436F6E73BC
:1033F000697374656E637920766572696669656460
:103400002E0D0A005B312E342E315D20536574740D
:10341000696E67206572726F722E20436F6E7369DA
:103420007374656E6379206E6F74206D65742E0DF4
:103430000A0000005B312E342E315D2009414444E6
:1034400052093078253032580954580930782530DF
:103450003258095258093078253032580D0A000088
:103460005B312E352E305D204C54433639353320B8
:103470004F55545F3320436F6E6669673A0D0A00FB
:103480005B312E352E305D2009414444520930789D
:10349000253032580956414C55450930782530328F
:1034A000580D0A005B312E352E315D205365747442
:1034B000696E67207375636365737366756C2E2020
:1034C000436F6E73697374656E6379207665726994
:1034D000666965642E0D0A005B312E352E315D2044
:1034E00053657474696E67206572726F722E204323
:1034F0006F6E73697374656E6379206E6F74206D7F
:1035000065742E0D0A0000005B312E352E315D20D2
:103510000941444452093078253032580954580939
:1035200030782530325809525809307825303258D1
:103530000D0A000070B588B013208DF8100000202F
:103540008DF811001AA0FEF76FF8002404AD04F105
:103550000A012A5D1EA0FEF767F8641C022CF6DB48
:10356000002302220A2104A800F04CFC00230222BE
:103570000A21684600F064FB0222694604A800F0B4
:10358000D1F820B11BA0FEF74FF808B070BD26A0FF
:10359000FEF74AF800246E462A5D335D04F10A0105
:1035A0002DA0FEF741F8641C022CF5DB08B070BDBD
:1035B0005B312E312E305D204C544336393533206B
:1035C00053525120436F6E6669673A0D0A0000003E
:1035D0005B312E312E305D20094144445209307850
:1035E000253032580956414C55450930782530323E
:1035F000580D0A005B312E312E315D2053657474F5
:10360000696E67207375636365737366756C2E20CE
:10361000436F6E73697374656E6379207665726942
:10362000666965642E0D0A005B312E312E315D20F6
:1036300053657474696E67206572726F722E2043D1
:103640006F6E73697374656E6379206E6F74206D2D
:1036500065742E0D0A0000005B312E312E315D2085
:1036600009414444520930782530325809545809E8
:103670003078253032580952580930782530325880
:103680000D0A000010B50021382000F0FAFA0446B7
:1036900014F0020F04D0214604A0FDF7C5FF03E09B
:1036A000214612A0FDF7C0FF204610BD5B312E3031
:1036B0002E305D204C544336393578206D6173745B
:1036C00065722064657465637465642E2056657246
:1036D00073696F6E20616E64207265766973696FBD
:1036E0006E3A203078253032580D0A005B312E308A
:1036F0002E305D204C544336393578206D6173741B
:103700006572204E4F542064657465637465642E41
:10371000204F75747075743A203078253032580D0A
:103720000A00000030B44FF0000C0023002A0ADD2C
:10373000C45CCD5CAC4203D00CF1010C0CF0FF0C6E
:103740005B1C9342F4DBBCF1000F02D030BC0020C4
:10375000704730BC0120704710B50021084600F0CA
:1037600090FA044614F0040F03D005A0FDF75CFFA7
:1037700003E021460BA0FDF757FF204610BD0000D7
:103780005B312E302E305D204C5443363935782055
:103790006D61737465722056434F204F4B2E0D0A96
:1037A000000000005B312E302E305D204C5443363B
:1037B000393578206D61737465722056434F20450A
:1037C00052524F522E204F75747075743A203078D3
:1037D000253032580D0A0000ADF5187D0020FDF7A8
:1037E00085FCFCF7FFFFAD48FDF704FAAB484FF44A
:1037F0007A714068B0FBF1F0401E0024B0F1807F88
:1038000008D24FF0E0214861A54AF02010708C6189
:1038100007200861FCF732FEA24E4FF4806130466B
:10382000FCF7A4FFA04D2C7001210020FDF70EFC39
:103830009E4804709E48FDF7F7FE9EA0FDF7F4FE3B
:10384000A5A0FDF7F1FE00F0E3F9FEF77DFC4121B4
:1038500085A8FEF74FF9422172A8FEF74BF94321E4
:103860005FA8FEF747F944214CA8FEF743F945212C
:1038700039A8FEF73FF9462126A8FEF73BF9472174
:1038800013A8FEF737F948216846FEF733F999A0E7
:10389000FDF7CAFE85A8FEF74FFB9CA0FDF7C4FE0E
:1038A000A2A0FDF7C1FE72A8FEF746FB97A0FDF7A8
:1038B000BBFEA4A0FDF7B8FE5FA8FEF73DFB93A0FA
:1038C000FDF7B2FEA5A0FDF7AFFE4CA8FEF734FB56
:1038D0008EA0FDF7A9FEA7A0FDF7A6FE39A8FEF76A
:1038E0002BFB8AA0FDF7A0FEA8A0FDF79DFE26A851
:1038F000FEF722FB85A0FDF797FEAAA0FDF794FE38
:1039000013A8FEF719FB81A0FDF78EFEABA0FDF713
:103910008BFE6846FEF710FB7CA0FDF785FE85A8B0
:10392000FEF7D4F83220FCF7A9FCFFF715FFFFF7EC
:10393000A9FEFFF7AFFAFFF7FDFDFFF75DFB0120E2
:10394000FFF786F901210846FFF7D8F940F2FF7129
:103950000120FEF7CFFD0120FFF7B6F800231A463D
:1039600019460120FEF7C6FE002302221946012057
:10397000FEF7C0FE0023042219460120FEF7BAFE1E
:103980000023052219460120FEF7B4FE0023082279
:1039900019460120FEF7AEFE00230A221946012037
:1039A000FEF7A8FE012200211046FEF799FF032230
:1039B00000210120FEF794FF062200210120FEF7DE
:1039C0008FFF072200210120FEF78AFF0922002134
:1039D0000120FEF785FF0220FFF73AF901210220BE
:1039E000FFF78CF940F2FE710220FEF783FD022002
:1039F000FFF76AF800231A4619460220FEF77AFEFE
:103A00000023022219461046FEF774FE002304220A
:103A100019460220FEF76EFE0023052219460220F9
:103A2000FEF768FE0023082219460220FEF762FE18
:103A30000023092219460220FEF75CFE0122002124
:103A40000220FEF74DFF032200210220FEF748FF6F
:103A5000062200210220FEF743FF07220021022058
:103A6000FEF73EFF4FF4FA60FCF708FCFFF796F90B
:103A700028780028FCD057A0FDF7D6FD4FF48061D0
:103A80003046FCF739FE4FF4FA70FCF7F7FB4FF4C1
:103A900080613046FCF76AFE2C70E9E7780100206F
:103AA00023ED00E00000024038000020300000203C
:103AB000244100085B305D2052756E2D74696D6580
:103AC00020636865636B696E6720656E61626C6513
:103AD0006420200A0D0000005B305D2050726F678B
:103AE00072616D2053746172746564202E2E2E20D5
:103AF000200A0D005B2A5D204144432041206F7560
:103B0000747075743A20200A0D0000002A2A2A2AAF
:103B10002A2A2A2A2A2A2A2A2A2A2A2A2A2A2A2A05
:103B20002A2A2A2A2A2A2A20200A0D005B2A5D2016
:103B30004144432042206F75747075743A20200A06
:103B40000D0000005B2A5D204144432043206F7537
:103B5000747075743A20200A0D0000005B2A5D2005
:103B60004144432044206F75747075743A20200AD4
:103B70000D0000005B2A5D204144432045206F7505
:103B8000747075743A20200A0D0000005B2A5D20D5
:103B90004144432046206F75747075743A20200AA2
:103BA0000D0000005B2A5D204144432047206F75D3
:103BB000747075743A20200A0D0000005B2A5D20A5
:103BC0004144432048206F75747075743A20200A70
:103BD0000D000000666F7263652073796E63206666
:103BE0006C6167207265636F72646564210D0A0001
:103BF00010B50A4601781046FEF76AFA002010BD9B
:103C000010B50A4601781046FEF77AFB002010BD79
:103C100010B500F04DF840210648FCF7A7FD8021C3
:103C20000548FCF7A3FDBDE810404FF400710348C0
:103C3000FCF79CBD00040240000802400000024066
:103C40002DE9F04105460C4616461F46384600F061
:103C500025F9012040EA4400C0B2394600F0B8F826
:103C60000024002E07DD3946FF2000F0B1F828556A
:103C7000641CB442F7DB384600F0F6F80020BDE8DB
:103C8000F08170B504460D46284600F007F9012082
:103C900040EA4400C0B2294600F09AF82946FF20C5
:103CA00000F096F80446284600F0DEF8204670BD85
:103CB0002DE9F04788B001210720FCF72FFF0121F3
:103CC0000803FCF773FF4FF02008CDF81880022698
:103CD0008DF81C608DF81D6000248DF81E400125B4
:103CE0008DF81F50DFF8D89006A94846FCF7E2FB94
:103CF0004027069706A94846FCF7DCFB4FF0800AF0
:103D0000CDF818A006A94846FCF7D4FB06978DF815
:103D10001C508DF81E408DF81F508DF81D6006A9AF
:103D20002848FCF7C7FBCDF818A08DF81C508DF87B
:103D30001E408DF81F508DF81D6006A92248FCF723
:103D4000B9FB6F0206978DF81C508DF81E408DF858
:103D50001F508DF81D6006A94846FCF7ABFB0522F5
:103D600011464846FCF73EFC052206214846FCF772
:103D700039FC052207214846FCF734FCADF8044025
:103D80004FF48270ADF80600ADF80840ADF80A4077
:103D9000ADF80C40ADF80E70ADF81080ADF81240E3
:103DA0000720ADF81400094C01A92046FDF75CF886
:103DB00001212046FCF7BEFF08B0BDE8F0870000F7
:103DC00000000240000402400008024000300140B0
:103DD00070B505460A4C02212046FCF7D7FF0028A3
:103DE000F9D029462046FDF723F801212046FCF7AB
:103DF000CDFF0028F9D02046FDF700F8C0B270BD15
:103E0000003001402DE9F04106460C4615461F469C
:103E1000384600F043F86006000E3946FFF7D8FF39
:103E20000024002D06DD305D3946FFF7D1FF641C0C
:103E3000AC42F8DB3846BDE8F04100F015B870B58B
:103E400004460E461546284600F028F86006000E87
:103E50002946FFF7BDFF29463046FFF7B9FF284640
:103E6000BDE87040AFF30080002807D0012809D0DA
:103E700002280BD101020648FCF778BC4021054816
:103E8000FCF774BC80210448FCF770BC704700004C
:103E9000000002400004024000080240002807D051
:103EA000012809D002280BD101020648FCF724BCE6
:103EB00040210548FCF720BC80210448FCF71CBCCD
:103EC0007047000000000240000402400008024069
:103ED000020D280203070700200000200020040034
:103EE00008000000010000000400000000000200C3
:103EF00001000000010000000000000001000000BF
:103F000000000000000000000000000000000000B1
:103F100001000000000000000000000000000000A0
:103F20000000000000000000000000000000000091
:103F3000000000000001020508090A0B0D1014150D
:103F400018191A1B1C1D1E1F20213A4041424547CB
:103F500048494A4B4C5E5F60616263646566676EA8
:103F60006F7071727374757677787982838BA8EE2F
:103F7000EFF300002E2E5C2E2E5C2E2E5C2E2E5C7F
:103F80004C69627261726965735C53544D33324C93
:103F90003178785F5374645065726970685F4472F9
:103FA000697665725C7372635C73746D33326C3105
:103FB00078785F657874692E630000002E2E5C2E81
:103FC0002E5C2E2E5C2E2E5C4C69627261726965CD
:103FD000735C53544D33324C3178785F5374645072
:103FE00065726970685F4472697665725C7372634A
:103FF0005C73746D33326C3178785F6770696F2EE3
:10400000630000002E2E5C2E2E5C2E2E5C2E2E5C6D
:104010004C69627261726965735C53544D33324C02
:104020003178785F5374645065726970685F447268
:10403000697665725C7372635C73746D33326C3174
:1040400078785F7263632E63000000002E2E5C2E72
:104050002E5C2E2E5C2E2E5C4C696272617269653C
:10406000735C53544D33324C3178785F53746450E1
:1040700065726970685F4472697665725C737263B9
:104080005C73746D33326C3178785F7370692E6352
:10409000000000002E2E5C2E2E5C2E2E5C2E2E5C40
:1040A0004C69627261726965735C53544D33324C72
:1040B0003178785F5374645065726970685F4472D8
:1040C000697665725C7372635C73746D33326C31E4
:1040D00078785F7379736366672E63002E2E5C2E8B
:1040E0002E5C2E2E5C2E2E5C4C69627261726965AC
:1040F000735C53544D33324C3178785F5374645051
:1041000065726970685F4472697665725C73726328
:104110005C73746D33326C3178785F75736172746F
:104120002E6300000D0A5B305D2053544D33326C1A
:10413000317878204669726D77617265204C6962CA
:104140007261727920636F6D70696C656420776944
:1041500074682046554C4C204153534552542066B8
:10416000756E6374696F6E2E2E2E200A0D0000008E
:104170005B25642E302E305D204C54433639353269
:1041800020617578696C6C617279202564206465A2
:104190007465637465642E2056657273696F6E2052
:1041A000616E64207265766973696F6E3A2030784B
:1041B000253032580D0A0000D841000800000020C8
:1041C0007801000022020008204200087801002047
:1041D0002004000058160008400A030406080C10CA
:1041E0001820302D010203040455060708091302A4
:1041F000401A080412443A400C390401FF011432F9
:10420000011210700B6164393235302D6C70632BE4
:104210000322193AF01D190A2A0101392C31000034
:0400000508000125C9
:00000001FF
