:020000040800F2
:1000000098050020390100083F0A0008E1070008B0
:100010003D0A0008790200082516000800000000CB
:10002000000000000000000000000000191100089E
:100030007B02000800000000190B00089112000864
:100040005301000853010008530100085301000840
:100050005301000853010008530100085301000830
:100060005301000853010008530100085301000820
:100070005301000853010008530100085301000810
:100080005301000853010008530100085301000800
:1000900053010008530100085301000853010008F0
:1000A00053010008530100085301000853010008E0
:1000B00053010008530100085301000853010008D0
:1000C00053010008530100085301000853010008C0
:1000D00053010008530100085301000853010008B0
:1000E000950200085301000853010008530100085D
:1000F00053010008000000005301000853010008EC
:10010000530100085301000853010008530100087F
:10011000530100085301000853010008530100086F
:1001200053010008DFF80CD000F04AF800480047FF
:100130001D3B0008980500200648804706480047F8
:10014000FEE7FEE7FEE7FEE7FEE7FEE7FEE7FEE787
:10015000FEE7FEE795120008250100082DE9F05F93
:100160000546002092469B46884606468146402426
:100170001BE0284641464746224600F042F85346D7
:100180005A46C01A914110D311461846224600F033
:1001900029F82D1A67EB01084F462246012000215D
:1001A00000F020F817EB00094E41201EA4F10104D5
:1001B000DFDC484631462A464346BDE8F09F000052
:1001C000064C074D06E0E06840F0010394E80700A4
:1001D00098471034AC42F6D3FFF7A8FFA4450008B7
:1001E000C4450008202A04DB203A00FA02F100206E
:1001F00070479140C2F1200320FA03F31943904065
:100200007047202A04DB203A21FA02F000217047CF
:1002100021FA02F3D040C2F120029140084319466E
:10022000704770B58C1810F8015B15F0070301D109
:1002300010F8013B2A1106D110F8012B03E010F849
:10024000016B01F8016B5B1EF9D12B0705D400236C
:10025000521E0DD401F8013BFAE710F8013BCB1A0E
:10026000921C03E013F8015B01F8015B521EF9D503
:10027000A142D8D3002070BDFEE7704701B4044806
:100280000099416041680029FCD101B0704700002D
:100290003000002010B54FF4005000F02FF8002877
:1002A0000AD006A001F0C0F90A4901200870BDE893
:1002B0001040400300F010B810BD0000696E746576
:1002C0007272757074207265636F72646564210D5B
:1002D0000A0000003800002010B5044614F07F4FDB
:1002E00000D124B94FF49371024802F0EFF90248AB
:1002F000046010BD104300081404014070B50446AA
:100300000025012C42D0022C40D0042C3ED0082CD9
:100310003CD0102C3AD0202C38D0402C36D0802C19
:1003200034D0B4F5807F31D0B4F5007F2ED0B4F551
:10033000806F2BD0B4F5006F28D0B4F5805F25D046
:10034000B4F5005F22D0B4F5804F1FD0B4F5004F54
:100350001CD0B4F5803F19D0B4F5003F16D0B4F5E9
:10036000802F13D0B4F5002F10D0B4F5801F0DD01E
:10037000B4F5001F0AD0B4F5800F07D0B4F5000F14
:1003800004D04FF48871054802F0A0F904480068D1
:10039000204200D00125284670BD0000104300080F
:1003A0001404014010B504462079002805D0042823
:1003B00003D085212E4802F089F96079082807D0FA
:1003C0000C2805D0102803D08621294802F07EF998
:1003D000206810F07F4F00D118B98721244802F01F
:1003E00075F9A07928B1012803D08821204802F0AE
:1003F0006DF92048A17981B30168226891430160B9
:10040000001D0168226891430160207900F180405D
:1004100000F58230016822681143016016490868BE
:100420002268904308600A1D106823689843106092
:100430006079102808D000F1804000F58230016812
:1004400022681143016010BD0868236818430860E2
:10045000106821680843106010BDFFE7207900F1A3
:10046000804000F58230016822689143016010BD30
:1004700010430008000401400804014000B583B0A7
:100480000121084600F04AFB4FF4806000900120F3
:100490008DF8040000218DF806108DF80700032068
:1004A0008DF805006946024800F004F803B000BD6D
:1004B000000002402DE9F05F04460D460026A4F13D
:1004C0008040B0F5003026D0A4F18040B0F5013076
:1004D00021D0A4F18040B0F502301CD0A4F18040BE
:1004E000B0F5033017D0A4F18040B0F5043012D03D
:1004F000A4F18040B0F505300DD0A4F18040B0F5F6
:10050000063008D0A4F18040B0F5073003D0B921FF
:10051000334802F0DBF8286818B9BA21304802F0F5
:10052000D5F8287948B1012807D0022805D003283A
:1005300003D0BB212A4802F0C9F8E87938B1012874
:1005400005D0022803D0BC21254802F0BFF84FF0A7
:10055000010A4FF0030B0AFA06F9286800EA0900BD
:10056000484537D1206877000BFA07F820EA0800E1
:100570002979B940084320602879012801D0022850
:1005800021D1687948B1012807D0022805D0032875
:1005900003D0D321124802F099F8A06820EA08009D
:1005A0006979B9400843A060A87928B1012803D02F
:1005B000DD210B4802F08AF8A08820EA0900A97919
:1005C000B1400843A080E06820EA0800E979B9401A
:1005D0000843E060761C102EBDD3BDE8F09F0000FC
:1005E0005843000870B506460C461546A6F18040F3
:1005F000B0F5003027D0A6F18040B0F5013022D010
:10060000A6F18040B0F502301DD0A6F18040B0F5D3
:10061000033018D0A6F18040B0F5043013D0A6F115
:100620008040B0F505300ED0A6F18040B0F5063020
:1006300009D0A6F18040B0F5073004D040F2212166
:100640002C4802F043F814B3012C20D0022C1ED009
:10065000032C1CD0042C1AD0052C18D0062C16D034
:10066000072C14D0082C12D0092C10D00A2C0ED034
:100670000B2C0CD00C2C0AD00D2C08D00E2C06D034
:100680000F2C04D040F222211A4802F01FF8F5B1D5
:10069000012D1CD0022D1AD0032D18D0042D16D0F8
:1006A000052D14D0072D12D00A2D10D00B2D0ED0F1
:1006B0000E2D0CD0062D0AD0082D08D00C2D06D0FA
:1006C0000F2D04D040F223210A4801F0FFFF6007FC
:1006D000C10E05FA01F2E00806EB8000036A4FF054
:1006E0000F0C0CFA01F123EA01010162016A1143C6
:1006F000016270BD5843000870B504460D46A4F170
:100700008040B0F5003027D0A4F18040B0F5013032
:1007100022D0A4F18040B0F502301DD0A4F1804079
:10072000B0F5033018D0A4F18040B0F5043013D0F8
:10073000A4F18040B0F505300ED0A4F18040B0F5B2
:10074000063009D0A4F18040B0F5073004D040F263
:100750009F11054801F0BAFF25B94FF4D071024846
:1007600001F0B4FF658370BD5843000870B50446BE
:100770000D46A4F18040B0F5003027D0A4F18040B0
:10078000B0F5013022D0A4F18040B0F502301DD088
:10079000A4F18040B0F5033018D0A4F18040B0F54A
:1007A000043013D0A4F18040B0F505300ED0A4F190
:1007B0008040B0F5063009D0A4F18040B0F5073094
:1007C00004D04FF4C671054801F080FF25B940F20E
:1007D0008D11024801F07AFF258370BD584300084F
:1007E000FEE700005548544981675549C16755499E
:1007F000C0F8A810544901655449C0F8B4105449D0
:10080000C0F884105349C0F888105349C0F88C10C0
:100810005249C0F890105249C0F894105149C0F89C
:1008200098105149C0F89C105049C0F8A010504988
:10083000C0F8E4104F49C0F8E8104F49C0F8EC1078
:100840004E49C0F8F0104E49C0F8F4104D49C0F8B8
:10085000F8104D4941654D49C0F8AC104C49C0F8FD
:10086000B0104C4981654C49C1654C4901664C4901
:1008700041664C4981664C49C1664C4901674C4907
:1008800041674C4941644C4981644C49C1624C49BF
:10089000C0F8B8104B49C0F8BC104B49C0F8C410A0
:1008A0004A49C1644A49C0F8A4104A4941624A49C8
:1008B000C0F8801049490163494941634949C0F87A
:1008C000C010890601604849416048498160484933
:1008D000C1604849016148494161484981614849CD
:1008E000C16148490162484981634849C163484937
:1008F00001644849C0F8CC104749C0F8D0104749B6
:1009000081624749C0F8C8104649C0F8D41046492A
:10091000C0F8D8104549C0F8DC104549C0F8E010CF
:100920004449C0F8FC104FF02041C0F80011424982
:10093000C0F8041170470000002401403C00002072
:10094000002701400030024000740040002004E015
:1009500000600240086002401C60024030600240BB
:1009600044600240586002406C6002408060024077
:1009700000640240086402401C640240306402408B
:10098000446402405864024000040140003C0240BC
:100990000000F81F0000024000040240000802406E
:1009A000000C02400010024000180240001C0240EF
:1009B0000014024000540040005800400030004045
:1009C00000E100E000ED00E090ED00E0007000408C
:1009D000003802400028004000300140003800404C
:1009E000003C004010E000E000040040000800402F
:1009F000000C0040001000400014004000080140BE
:100A0000000C01400010014000380140004400404B
:100A100000480040004C004000500040002C0040C6
:100A200000240040047C00405C7C00400000014049
:100A3000002C014000000650040100A0FEE77047B2
:100A400070B504460F25E078002805D0012803D0B2
:100A50008E2121A001F03AFE6078102803D38F2167
:100A60001DA001F033FEA078102803D390211AA016
:100A700001F02CFEE078012310B32648006800F452
:100A8000E060C0F5E060C0F30720C0F1040125FA82
:100A900000F260788840A178114008430001217875
:100AA00001F1E02181F80004207800F01F0103FA31
:100AB00001F14009800000F1E020C0F8001170BD94
:100AC000207800F01F0103FA01F14009800000F1D5
:100AD000E020C0F8801170BD2E2E5C2E2E5C2E2ED4
:100AE0005C2E2E5C4C69627261726965735C535452
:100AF0004D33324C3178785F53746450657269704D
:100B0000685F4472697665725C7372635C6D697369
:100B1000632E63000CED00E07047000070B50446E2
:100B20000D460D48044200D124B940F254410B480F
:100B300001F0CCFD35B1012D04D040F255410748FC
:100B400001F0C4FD06481DB101682143016070BD7C
:100B50000168A143016070BD006FFFB4A0430008AD
:100B60001C38024070B504460D460D48044200D1C1
:100B700024B940F2A6410B4801F0A8FD35B1012D82
:100B800004D040F2A741074801F0A0FD06481DB17E
:100B900001682143016070BD0168A143016070BD1F
:100BA000C035014FA04300082438024070B5044608
:100BB0000D4624F01D0030F4B44000D124B940F2B9
:100BC00077410A4801F082FD35B1012D04D04FF480
:100BD0008F61064801F07AFD05481DB10168214387
:100BE000016070BD0168A143016070BDA0430008B1
:100BF00020380240DFF8C4C0DCF8001001F00C011E
:100C0000ACF104034FF40042002929D004292FD06D
:100C1000082930D00C2931D01968C1F34231491C60
:100C200002FA01F10160DCF8001001F0F00109099D
:100C3000234B595C026822FA01F14160DCF8002084
:100C400002F4E062120A9A5C21FA02F28260DCF895
:100C5000002002F46052D20A9A5CD140C160704711
:100C60001968C1F34231491C02FA01F10160DAE767
:100C700014490160D7E714490160D4E7DCF800109B
:100C800001F47011DCF8002002F440020F4B03EB7A
:100C900091410978012303EB9252DCF8003003F410
:100CA00080332BB1084B5943B1FBF2F10160BAE735
:100CB000044B5943B1FBF2F10160B4E7083802403C
:100CC000090000200024F40000127A000000002037
:100CD00070B504460D46A4F18040B0F598300ED0B2
:100CE000A4F18040B0F5605009D0A4F18040B0F587
:100CF000705004D040F2DF110D4801F0E7FCA5F57B
:100D00003F40FF3807D0B5F5804F04D04FF4F07165
:100D1000074801F0DBFCB5F5804F04D0208820F4B3
:100D20008040208070BD208840F48040208070BDCD
:100D3000E843000870B504460D46A4F18040B0F5C4
:100D400098300ED0A4F18040B0F5605009D0A4F1E5
:100D50008040B0F5705004D04FF4CC710A4801F0D7
:100D6000B5FC35B1012D04D040F29911064801F0CF
:100D7000ADFC25B1208840F04000208070BD208867
:100D800020F04000208070BDE843000870B50546A3
:100D90000C460026A5F18040B0F598300ED0A5F1A4
:100DA0008040B0F5605009D0A5F18040B0F570509A
:100DB00004D040F2A131104801F088FC802C15D0FD
:100DC000402C13D0202C11D0102C0FD0082C0DD07B
:100DD000042C0BD0022C09D0012C07D0B4F5807F55
:100DE00004D040F2A231044801F070FC288920426E
:100DF00000D00126304670BDE843000810B5044617
:100E0000A4F18040B0F598300ED0A4F18040B0F548
:100E1000605009D0A4F18040B0F5705004D040F289
:100E20004121024801F052FCA08910BDE8430008AE
:100E300070B504460D46A4F18040B0F598300ED050
:100E4000A4F18040B0F5605009D0A4F18040B0F525
:100E5000705004D040F25121024801F037FCA581C6
:100E600070BD0000E843000870B505460C46A5F1CA
:100E70008040B0F598300DD0A5F18040B0F56050BD
:100E800008D0A5F18040B0F5705003D0C0213D4896
:100E900001F01CFC208860B1B0F5806F09D0B0F57E
:100EA000004F06D0B0F5404F03D0C321354801F0C4
:100EB0000DFC6088B0F5827F04D018B1C4213148A0
:100EC00001F004FCA088B0F5006F04D018B1C52172
:100ED0002C4801F0FBFBE08828B1022803D0C62192
:100EE000284801F0F3FB208928B1012803D0C7214D
:100EF000244801F0EBFB6089B0F5007F04D018B105
:100F0000C821204801F0E2FBA08988B108280FD051
:100F100010280DD018280BD0202809D0282807D059
:100F2000302805D0382803D0C921164801F0CEFB5F
:100F3000E08928B1802803D0CA21124801F0C6FBFD
:100F4000208A18B9CB210F4801F0C0FB288800F493
:100F5000415021886288E3881143A2881A431143D3
:100F60002289114362891143A2891143E289114305
:100F700008432880A88B20F40060A883208A288258
:100F800070BD0000E8430008F0B583B004460E468B
:100F90002648274950F8240051F82410084301211D
:100FA000FFF7BCFD2348012150F82400FFF7DAFDCC
:100FB0002148224D025D801E015D55F82400FFF797
:100FC00011FB1F482F1D025D801E015D57F8240094
:100FD000FFF708FB1B4830F81400009002208DF842
:100FE000040003208DF8050000208DF80600012084
:100FF0008DF8070055F824006946FFF75BFA1248A0
:1010000030F81400009057F824006946FFF752FAB0
:101010002D1F314655F8240000F000FA55F8240041
:10102000012100F06DF903B0F0BD00008C42000812
:101030009042000888420008714200082800002001
:10104000724200087A4200087C42000870B586B0FF
:1010500004460E461F48012150F82400FFF75EFDAC
:1010600001210846FFF7A2FD00258DF814508DF8E8
:101070001750194830F814000490184804A950F883
:101080002400FFF717FA012E22D11548015D401EFA
:10109000005D00F043F8134830F8140002908DF81A
:1010A0000C5008208DF80D0001258DF80E5002A877
:1010B000FFF778F90C48005D8DF804000F208DF8DB
:1010C00005008DF806008DF8075001A8FFF7B8FC61
:1010D00006B070BD8442000876420008200000205F
:1010E0006D420008784200086E42000800B585B0E5
:1010F0004FF4E13100910021ADF80410ADF8061075
:10110000ADF80810ADF80C100C21ADF80A106946C6
:10111000FFF73AFF05B000BD7047000070B5054607
:101120000C46002D11D0012D0FD0022D0DD0032D16
:101130000BD0042D09D0062D07D0072D05D0052D85
:1011400003D0CD211D4801F0C1FA0CB3012C1FD0F2
:10115000022C1DD0032C1BD0042C19D0052C17D029
:10116000062C15D0072C13D0082C11D0092C0FD029
:101170000A2C0DD00B2C0BD00C2C09D00D2C07D029
:101180000E2C05D00F2C03D0CE210C4801F09EFA76
:10119000A007010F0F2000FA01F224F0030000F174
:1011A000804000F58030836823EA02028260826812
:1011B00005FA01F11143816070BD00003044000860
:1011C00083B000220292019200922C49086840F0FC
:1011D00001000860086800F002000190019818B949
:1011E0000298B0F5A04FF5D1086810F0020F02D0B8
:1011F0000120019000E00192019A2148012A07D1C3
:10120000026822F47D020260026842F488020260F1
:101210001C4A136843F004031360136843F002038D
:101220001360136843F001031360174A136843F017
:1012300080531360D314154A1360536813F0100FD2
:10124000FBD10268026002680260026802600A68FC
:1012500042F080720A600A6812F0007FFBD00168D9
:1012600021F003010160016841F0030101600C21DC
:10127000026831EA0202FBD103B070470038024035
:1012800008380240003C0240243802400070004010
:1012900000F02CB810B51048016841F4807101606D
:1012A0000E490A680E4B1A400A6002680D4B1A403C
:1012B0000260026822F480220260086820F47D0047
:1012C0000860091D00200860FFF77AFF06494FF00B
:1012D0000060086010BD000000380240083802407D
:1012E0000CC0FF88FEFFFEEE08ED00E003484168F9
:1012F000002902D04168491E41607047300000203B
:1013000070B504460D46A4F18040B0F59C3018D06D
:10131000A4F18040B0F5884013D0A4F18040B0F52E
:1013200090400ED0A4F18040B0F5984009D0A4F1CF
:101330008040B0F5A04004D04FF4C8710A4801F0D5
:10134000C5F935B1012D04D040F29111064801F0E4
:10135000BDF925B1A08940F40050A08170BDA089DD
:1013600020F40050A08170BD784400082DE9F047BA
:1013700005460C460026254FDFF89480DFF8949050
:10138000BD4212D0454510D04D450ED0A5F180404C
:10139000B0F5984009D0A5F18040B0F5A04004D048
:1013A00040F2F5411C4801F091F9012C18D0802C35
:1013B00016D0402C14D0202C12D0102C10D0B4F504
:1013C000807F0DD0B4F5007F0AD0082C08D0042C03
:1013D00006D0022C04D040F2F6410F4801F076F915
:1013E000B4F5007F0AD1BD4208D0454506D04D4531
:1013F00004D040F2FB41084801F068F928882042F7
:1014000000D001263046BDE8F087000000380140DA
:101410000044004000480040784400082DE9F041B5
:1014200084B004460D46614E614FDFF88881B442B6
:1014300011D0BC420FD044450DD0A4F18040B0F58E
:10144000984008D0A4F18040B0F5A04003D0E2213C
:10145000594801F03BF928685849401E884203D397
:10146000E321554801F032F9A88830B1B0F5805F2A
:1014700003D0E421504801F029F9E88860B1B0F5C3
:10148000805F09D0B0F5005F06D0B0F5405F03D0B3
:10149000E521494801F01AF9288948B1B0F5806F73
:1014A00006D0B0F5C06F03D0E621434801F00EF935
:1014B000688930F00C0100D118B9E7213E4801F0ED
:1014C00005F9A88960B1B0F5807F09D0B0F5007F3B
:1014D00006D0B0F5407F03D0E821374801F0F6F898
:1014E000A88948B1B44207D0BC4205D0444503D0D6
:1014F000ED21314801F0EAF8208A20F44050E988D3
:1015000008432082A08920F4037020F4A050A98809
:101510002A8911436A8910430843A081A08A20F4D4
:101520004070A9890843A0826846FFF763FBB44274
:1015300001D1039800E00298A18911F4004F08D06E
:1015400000EBC00101EB001029684900B0FBF1F08D
:1015500007E000EBC00101EB001029688900B0FB37
:10156000F1F0174AA2FB0031490909010B096FF09C
:10157000180C03FB0CF300EB8300A38913F4004F5A
:101580004FF0320307D003EBC000A2FB0020C0F3F2
:101590004210084306E003EB0010A2FB0020C0F35A
:1015A00043100843208104B0BDE8F08100380140B9
:1015B00000440040004800407844000800093D0015
:1015C0001F85EB5170B504460D46A4F18040B0F57F
:1015D0009C3018D0A4F18040B0F5884013D0A4F11D
:1015E0008040B0F590400ED0A4F18040B0F5984016
:1015F00009D0A4F18040B0F5A04004D04FF40571AB
:10160000074801F063F8B5F5007F04D340F21521D7
:10161000034801F05BF8C5F30800A08070BD00002E
:1016200078440008FEE700000FB4054B10B503A98D
:10163000044A029800F018F810BC5DF814FB000092
:10164000392700087401002002E008C8121F08C1F1
:10165000002AFAD170477047002001E001C1121F33
:10166000002AFBD1704700002DE9FF4F8DB00F46D7
:101670000546002606E025280BD0DDE90F1290472D
:101680006D1C761C28780028F5D111B03046BDE8D5
:10169000F08F0024A246A1460122EC4900E0044359
:1016A00015F8013F203B02FA03F00842F7D12878F1
:1016B0002A2810D06FF02F022878A0F130010929D4
:1016C00014D80AEB8A0102EB410144F0020400EB5A
:1016D000010A6D1CF0E701CF5FEA000A03D544F46C
:1016E0000054CAF1000A44F002046D1C28782E2828
:1016F00017D115F8010F44F004042A280ED06FF01A
:101700002F022878A0F1300109290AD809EB8901B4
:1017100002EB410100EB01096D1CF2E757F8049B55
:101720006D1C28786C280FD006DC4C2817D0682850
:101730000DD06A2814D104E0742810D07A280FD173
:101740000DE044F400140AE044F4801401E044F491
:1017500040146978814202D104F580146D1C6D1C1F
:101760002A786E2A1FD00CDC632A31D004DC002AD0
:101770008BD0582A11D1A3E0642A68D0692A0CD1F1
:1017800065E0732A2ED004DC6F2A73D0702A04D14E
:101790009BE0752A6FD0782A6ED01046DDE90F12D3
:1017A0009047761C50E1C4F30250022806D003286B
:1017B00009D0042801CF09D0066045E101CFF11717
:1017C000C0E9006140E101CF06803DE106703BE1E8
:1017D00017F8040B8DF8000000208DF80100EB468F
:1017E000012003E057F804BB4FF0FF3061074FF0D2
:1017F000000102D40DE008F10101884649450FDAE5
:101800008045F8DB1BF808100029F4D108E008F146
:10181000010188468142FADB1BF808100029F6D145
:10182000DDE90F23AAEB08008146214600F036F9D6
:10183000304400EB080604E0DDE90F121BF8010B51
:101840009047B8F10108F7D221464846F7E00A214F
:10185000C4F302534FF0000B0891022B04D001CFC8
:10186000C117032B09D00AE0FF1D27F00707F7E88F
:10187000020108E032E01FE020E000B2C117042BB3
:1018800001D140B2C117031E71F1000307DA4FF016
:10189000000CD0EB0C006CEB01012D2302E02305C2
:1018A00004D52B238DF82430012303E0E30701D076
:1018B0002023F7E7984658E00A2110E010210EE0B7
:1018C00010204FF0000B08900CE010214FF0000B9F
:1018D00044F004044FF00809089103E008214FF098
:1018E000000B0891C4F30253022B04D001CF002156
:1018F000032B06D006E0FF1D27F00707F7E80201DB
:1019000003E080B2042B00D1C0B24FF000082307DF
:101910002BD5702A07D0DDF820C08CF0100C5CEAC3
:101920000B0C05D00EE040238DF82430012308E095
:1019300050EA010306D030238DF824308DF825209D
:1019400002239846DDF820C08CF0080C5CEA0B0CF2
:101950000BD150EA010301D1630706D530238DF87E
:1019600024304FF00108A9F10109582A04D038A207
:101970000B9208AA0A920BE03AA2F9E75B46089A92
:10198000FEF7ECFB0B9B9B5C0A9A521E0A921370AB
:1019900050EA0102F2D10A98ADEB000000F1200BF1
:1019A000600702D524F4803401E04FF00109D945E5
:1019B00002DDA9EB0B0000E0002000EB0B0141442D
:1019C0000890AAEB010AE00306D4DDE90F232146C3
:1019D000504600F063F806444FF0000908E009A9FA
:1019E00011F80900DDE90F12904709F10109761C91
:1019F000C145F4DBE0030CD5DDE90F232146504659
:101A000000F04CF8064404E0DDE90F123020904766
:101A1000761C0899481E08900029F5DC08E00A9811
:101A20000A990078491C0A91DDE90F129047761C4B
:101A3000BBF10001ABF1010BF1DC21465046DDE9C1
:101A40000F2300F019F806446D1C1BE6092801005D
:101A50003031323334353637383961626364656624
:101A600000000000303132333435363738394142E6
:101A700043444546000000002DE9F041044600259E
:101A80001E461746880404D405E039462020B04796
:101A90006D1C641EF9D52846BDE8F0812DE9F041A2
:101AA000044600251E469046C80301D5302700E0B5
:101AB0002027880404D505E041463846B0476D1C10
:101AC000641EF9D52846BDE8F081000070B50646D1
:101AD0000024074D285740F48071304600F0F1F99A
:101AE000002803DB611C4CB23F2CF3DB70BD00000F
:101AF000D042000810B40022074B00EB820453F8D8
:101B000022C0C4F810C0521C0F2AF6DB0170034932
:101B1000416010BC0020704794420008440100203E
:101B200010B504461949E16091F9000091F90320CC
:101B300040EA820091F9022091F90110D20042EAB4
:101B4000011140EA01021249204600F0DBFB0028A7
:101B50001ADBE0680F49B0F90420204600F0D2FB00
:101B6000002811DBE0680C49B0F90620204600F09F
:101B7000C9FB002808DBE0680849B0F908202046C6
:101B8000BDE8104000F0BEBB10BD00008801002081
:101B900045010B0048020C004A020D004C020E00E9
:101BA000C0F30740704710B5002908D0012906D0BE
:101BB0004FF4B07100F085F9C0F3400010BD490644
:101BC0000A0EBDE8104002234FF4B07100F0A3B933
:101BD00010B501290AD0022908D040F2611100F0A5
:101BE00070F9002801DBC0F3011010BD89078A0ECF
:101BF000BDE81040302340F2611100F08CB910B5FF
:101C000003460C46202917D8C81701EB907020F026
:101C10000300081A30B1022801DA241A02E0C0F1E8
:101C200004000444621E4FF4B871184600F06AFBC9
:101C3000002800DB204610BDBDE810404FF4B8710D
:101C4000184600F03EB9000070B504467948A0601F
:101C50006023C07840F273118007420E204600F0E6
:101C60005AF900287EDBA068734DE02340792946AD
:101C70004007020E204600F04EF9002872DB204695
:101C800000F01CFB00286DDB01231A462946204684
:101C900000F041F9002865DB204600F00FFB00282A
:101CA00060DBA06840F21511407800F00702204682
:101CB00000F028FB002855DBA0684FF4B27190F9C2
:101CC0000720204600F01EFB00284BDBA06840F2F6
:101CD000651190F90820204600F014FB002841DB34
:101CE000A0684FF4B37190F90920204600F00AFB78
:101CF000002837DBA06840F2671190F90A202046DF
:101D000000F000FB00282DDBA06880234FF4B771A2
:101D1000007BC007020E204600F0FDF8002821DB02
:101D2000A06890F90B102046FFF769FF00287FDBC1
:101D3000A068C0234FF4B97100798007020E2046D5
:101D400000F0E9F8002873DBA0680221407D00F074
:101D5000030041EA00124FF4C171204600F0D2FAAC
:101D6000002800E064E063DBA06840F28311807D1E
:101D700000F0030040F03002204600F0C3FA0028D3
:101D800056DB2E4D01222946204600F0BBFA0028E2
:101D90004EDB204600F092FA002849DBA06890F95B
:101DA000111090F9102090F9143041EA420190F995
:101DB000122090F91300920042EAC302114341EA53
:101DC00000122946204600F09DFA002830DB20460C
:101DD00000F074FA00282BDBA0680C2340F25F119E
:101DE000407B8007020F204600F095F800281FDB9B
:101DF000A068202340F25F11807B4007020E20463E
:101E000000F089F8002813DBA06890F90F10204635
:101E1000FFF7C9FE00280BDB02212046FFF7D8FEA2
:101E2000002805DB2046BDE87040002100F008B81E
:101E300070BD00005B010020140106003A0108009B
:101E400010B500240E2908D201F00F020F2340F232
:101E5000611100F060F8204610BD40F2611100F001
:101E600030F80028F8DB00F00F0010BD10B5DFF8E7
:101E700028C0002907D0012905D0614600F021F8CB
:101E8000C0F3800010BD89060A0EBDE8104004238F
:101E9000614600F040B8000014010600002906D099
:101EA000012909D0032240F2051100F02BBA0122CA
:101EB00040F2051100F026BA022240F2051100F0AE
:101EC00021BA2DE9F84381464FF00008CDF8008093
:101ED00000260025C8B200F50044C1F30727002FF3
:101EE00016D9200A8DF800008DF801408DF8028087
:101EF0006946484602F04AF800280ADB641E3002B0
:101F00009DF8021041EA0006681CC5B2BD42E8D344
:101F10003046BDE8F8832DE9F04104460E461546EB
:101F20001F463046FFF73CFE002803DD04EB80002F
:101F3000007C06E031462046FFF7C3FF00280ADB9D
:101F4000C0B2B84340EA05023146204600F0DAF953
:101F5000002800DB0020BDE8F081000070B50446D9
:101F60000E461546012E02D0204600F07BF90120D6
:101F7000FEF784F931462046FFF790FF00287DDB0D
:101F800001231A4640F25F112046FFF7C4FF0028E4
:101F900074DB606820234FF4847100784007020EE0
:101FA0002046FFF7B8FF002868DB606890F9011051
:101FB000807800F0030041EA0012A649204600F0B4
:101FC000A1F900285ADB204600F078F9002855DBFB
:101FD000C0230022A0492046FFF79DFF00284DDBCB
:101FE000204600F06BF9002848DB0821204600F06D
:101FF0004DF9002842DB204600F060F900283DDB67
:1020000029462046FFF732FF002837DB204600F044
:1020100055F9002832DB60689049407900F01F02D2
:10202000204600F06FF9002828DB204600F046F932
:10203000002823DBDE2240F21911204600F062F96D
:1020400000281BDBAD224FF48D71204600F05AF9B9
:10205000002813DBBE2240F21B11204600F052F98B
:1020600000280BDBFF224FF48E71204600F04AF966
:10207000002803DB002240F21D1100E082E0204630
:1020800000F040F900287DDB00224FF48F712046DC
:1020900000F038F9002875DB112240F21F112046AC
:1020A00000F030F900286DDB11224FF490712046CA
:1020B00000F028F9002865DB2046FFF731FD0028F5
:1020C00060DB204600F0FAF800285BDB60680179ED
:1020D00090F9032001F0070161F3DF026049204617
:1020E00000F010F900284DDB204600F0E7F800284A
:1020F00048DB22224FF4AF71204600F003F900289C
:1021000040DB80224FF4F771204600F0FBF80028F6
:1021100038DB606840F2211180798007C20E2046CA
:1021200000F0F0F800282DDB2046FFF78DFD002899
:1021300028DB0123002240F25F112046FFF7EBFE6F
:1021400000281FDB606840F2211180798007C20EF1
:10215000204600F0D7F8002875DB0120FEF78EF846
:1021600081224FF4F771204600F0CCF800286ADB9A
:10217000812240F2EF11204600F0C4F8002862DB13
:10218000822200E05FE04FF4F771204600F0BAF8D9
:10219000002858DB822240F2EF11204600F0B2F80E
:1021A000002850DB83224FF4F771204600F0AAF894
:1021B000002848DB832240F2EF11204600F0A2F80D
:1021C000002840DB84224FF4F771204600F09AF893
:1021D000002838DB842240F2EF11204600F092F80C
:1021E000002830DB85224FF4F771204600F08AF892
:1021F000002828DB852240F2EF11204600F082F80B
:10220000002820DB86224FF4F771204600F07AF890
:10221000002818DB862240F2EF11204600F072F809
:10222000002810DB87224FF4F771204600F06AF88F
:10223000002808DB872240F2EF11204600F062F808
:102240000446200000D570BD0120FEF717F8204697
:1022500070BD0000090101000D0103001801070015
:102260000B01020010B504463C224FF48071204659
:1022700000F048F8002808DB4FF480712046FFF793
:1022800020FE002801DB1828F6D110BD10B5DFF8BC
:1022900028C0102907D201F00F02BDE810400F231B
:1022A0006146FFF738BE6146FFF70BFE002801DBF1
:1022B00000F00F0010BD00000D01030070B50546D1
:1022C0004FF6FF740122E111284600F01BF80028A8
:1022D00010DB40F2FF112846FFF7F3FD002809DB71
:1022E00040B2641E012801D1002CF2D102A0FFF7F8
:1022F0009BF9002070BD00007472616E7366657298
:10230000210D0A002DE9F8438046174600250020DC
:1023100000900846FFF744FC002802DD08EB80022D
:102320001761CCB2C1F30726002E17D9701B401ECF
:10233000C00047FA00F0210A8DF800108DF8014026
:102340008DF802006946404601F028FE002805DBB2
:10235000611E8CB2691CCDB2B542E7D3BDE8F883EB
:1023600070B504460E46304600F07AF920783146C2
:1023700000F0ECF86078314600F0E8F84BF6FF70BA
:1023800000F036F83146FF2000F0F2F805464FF431
:10239000804000F02DF8304600F02CF92846A5705A
:1023A0000246617802A0FFF73FF9284670BD0000A1
:1023B0005B2A5D526561642066726F6D20307825FE
:1023C0003032582C2056616C7565203078253032BB
:1023D000582E200D0A00000010B500F019F8412415
:1023E000204600F007F9601CC4B2482CF8D910BD93
:1023F000A0F53F42FF3A03D1034A1388022BFCD1D8
:1024000001460248FEF764BC083C0040003C004026
:102410002DE9F04188B001210620FEF77FFB012164
:10242000C803FEF79FFB4FF48060069002208DF8F2
:102430001C0001258DF81D5000248DF81E408DF8DC
:102440001F40DFF8F88006A94046FEF733F8EF0298
:10245000069706A94046FEF72DF82E03069606A914
:102460004046FEF727F8042006908DF81C508DF8A2
:102470001E408DF81F508DF81D50314D06A928467D
:10248000FEF718F8069706A92846FEF713F80696F1
:1024900006A92846FEF70EF8A815069006A940469C
:1024A000FEF708F84020069006A94046FEF702F81D
:1024B0002020069006A94046FDF7FCFF0696214D18
:1024C00006A92846FDF7F6FF069706A92846FDF758
:1024D000F1FF06220A214046FEF784F806220B216E
:1024E0004046FEF77FF806220C214046FEF77AF8B8
:1024F0004FF44040ADF804004FF48270ADF8060090
:10250000ADF80840ADF80A40ADF80C406815ADF8DC
:102510000E003020ADF81000ADF812400720ADF8E5
:102520001400094C01A92046FEF79EFC012120461B
:10253000FEF700FC08B0BDE8F08100000008024092
:102540000004024000000240003C004070B5054617
:10255000064C02212046FEF719FC0028F9D0294636
:102560002046BDE87040FEF763BC0000003C004020
:1025700010B5064C01212046FEF708FC0028F9D0D2
:102580002046FEF73BFCC0B210BD0000003C0040FE
:1025900070B504460D46284600F062F820782946BA
:1025A000FFF7D4FF60782946FFF7D0FFA0782946CF
:1025B000FFF7CCFF0120FDF761FE284600F01AF876
:1025C000A2786178BDE8704001A0FFF72DB8000047
:1025D0005B2A5D577269746520746F2030782530EE
:1025E00032582C2056616C75652030782530325871
:1025F0002E0D0A00A0F141011648174A174B082971
:1026000027D2DFE801F004070B0F14181C21042166
:10261000FEF7ACB84FF40061FEF7A8B84FF4805154
:10262000FEF7A4B84FF480711046FEF79FB8402122
:102630001046FEF79BB820211046FEF797B84FF4DE
:1026400080511846FEF792B84FF400611846FEF725
:102650008DB87047000402400008024000000240AC
:10266000A0F141011648174A174B082927D2DFE885
:1026700001F004070B0F14181C210421FEF73CB8CD
:102680004FF40061FEF738B84FF48051FEF734B8CC
:102690004FF480711046FEF72FB840211046FEF728
:1026A0002BB820211046FEF727B84FF4805118466A
:1026B000FEF722B84FF400611846FEF71DB87047C8
:1026C00000040240000802400000024004460D469B
:1026D00005A0FEF7A9FF21460DA0FEF7A5FF29469C
:1026E00010A0FEF7A1FFFEE70A0D2057726F6E677C
:1026F00020706172616D657465722076616C7565BC
:10270000206465746563746564206F6E0D0A000053
:102710002020202020202066696C65202025730D54
:102720000A000000202020202020206C696E6520F7
:102730002025640D0A00000070B504460E4DE1B27C
:102740002846FEF73FFF0D48006810F0010F0AD041
:102750000B48006810F0010F05D04FF06040016891
:102760000029FCD0047040212846FEF7FFFD002818
:10277000F9D0204670BD000000440040800E00E00B
:10278000000E00E0F0B58BB0054640F2FF7020EA85
:1027900001012A208DF8180000208DF81900880A00
:1027A00000EB4002C1F3402000EB400002EB80024E
:1027B000C1F3002000EB400002EB0012C1F3C01097
:1027C00000EB400002EB80108DF81A00C1F380107E
:1027D00000EB4002C1F3401000EB400002EB80022E
:1027E000C1F3001000EB400002EB0012C1F3C00087
:1027F00000EB400002EB80108DF81B00C1F380005D
:1028000000EB4002C1F3400000EB400002EB80020D
:1028100001F0010000EB400002EB00108DF81C00FD
:102820002A46691C1CA0FEF7FFFE002406AF621CAE
:102830003B5D691C24A0FEF7F7FE641C052CF6DB4B
:102840002B460522012106A801F0AAFC2B460522F1
:10285000012102A801F0C2FB2B46052202A906A80D
:1028600000F0A0FB28B1691C21A0FEF7DDFE0BB033
:10287000F0BD691C2CA0FEF7D7FE002402AE621C3E
:10288000305D00903B5D691C33A0FEF7CDFE641CFB
:10289000052CF4DB0BB0F0BD5B25642E302E305DD3
:1028A000204C54433639353220617578696C6C613F
:1028B000727920256420476C6F62616C20436F6ED3
:1028C0006669673A0D0A00005B25642E302E305D84
:1028D0002009414444520930782530325809564184
:1028E0004C5545093078253032580D0A000000005B
:1028F0005B25642E302E315D2053657474696E67DC
:10290000207375636365737366756C2E20436F6EF9
:1029100073697374656E637920766572696669653B
:10292000642E0D0A000000005B25642E302E315D00
:102930002053657474696E67206572726F722E2001
:10294000436F6E73697374656E6379206E6F742064
:102950006D65742E0D0A00005B25642E302E315DEE
:1029600020094144445209307825303258095458DE
:1029700009307825303258095258093078253032DC
:10298000580D0A002DE9F0418AB005460C460C208E
:1029900000EB8200C6B299208DF81800802000EB71
:1029A00014208DF819008DF81A4003F03F008DF8BF
:1029B0001B0013462A46691C21A0FEF735FE22465D
:1029C000691C2CA0FEF730FE002406AF32193B5DD7
:1029D000691C38A0FEF728FE641C042CF6DB2B468D
:1029E0000422314606A801F0DBFB2B4604223146C7
:1029F00002A801F0F3FA2B46042202A906A800F06F
:102A0000D1FA30B1691C35A0FEF70EFE0AB0BDE860
:102A1000F081691C3FA0FEF707FE00240DF10808B5
:102A2000321918F8040000903B5D691C45A0FEF7C0
:102A3000FBFD641C042CF3DB0AB0BDE8F081000050
:102A40000D0A5B25642E322E305D204C54433639FE
:102A5000353220617578696C6C617279202564204B
:102A60004F55545F256420436F6E6669673A0D0ABF
:102A7000000000005B25642E322E305D2054686912
:102A80007320697320612044434C4F434B20776986
:102A900074682064656C6179206F66202564205617
:102AA000434F2068616C662D6379636C65732E0DEE
:102AB0000A0000005B25642E322E305D200941445F
:102AC0004452093078253032580956414C55450951
:102AD0003078253032580D0A000000005B25642E46
:102AE000322E315D2053657474696E67207375638F
:102AF0006365737366756C2E20436F6E73697374B0
:102B0000656E63792076657269666965642E0D0A63
:102B1000000000005B25642E322E315D2053657469
:102B200074696E67206572726F722E20436F6E73C8
:102B3000697374656E6379206E6F74206D65742E91
:102B40000D0A00005B25642E322E315D20094144C0
:102B500044520930782530325809545809307825C4
:102B6000303258095258093078253032580D0A0051
:102B70002DE9F0418AB005460C460C2000EB82009E
:102B8000C6B29C208DF81800E02000EB14208DF8D0
:102B900019008DF81A4000208DF81B0013462A46B4
:102BA000691C21A0FEF740FD2246691C2BA0FEF700
:102BB0003BFD002406AF32193B5D691C37A0FEF7D0
:102BC00033FD641C042CF6DB2B460422314606A898
:102BD00001F0E6FA2B460422314602A801F0FEF984
:102BE0002B46042202A906A800F0DCF930B1691CCA
:102BF00034A0FEF719FD0AB0BDE8F081691C3FA0C2
:102C0000FEF712FD00240DF10808321918F804002F
:102C100000903B5D691C45A0FEF706FD641C042C7A
:102C2000F3DB0AB0BDE8F0810D0A5B25642E322E7D
:102C3000305D204C54433639353220617578696CEB
:102C40006C617279202564204F55545F25642043C0
:102C50006F6E6669673A0D0A000000005B25642EFE
:102C6000322E305D205468697320697320612053CF
:102C7000595352454620776974682064656C6179C0
:102C8000206F662025642056434F2068616C662DB6
:102C90006379636C65732E0D0A0000005B25642E5A
:102CA000322E305D200941444452093078253032BB
:102CB000580956414C5545093078253032580D0A8F
:102CC000000000005B25642E322E315D20536574B8
:102CD00074696E67207375636365737366756C2EB4
:102CE00020436F6E73697374656E637920766572C5
:102CF00069666965642E0D0A000000005B25642E7C
:102D0000322E315D2053657474696E67206572726E
:102D10006F722E20436F6E73697374656E637920D2
:102D20006E6F74206D65742E0D0A00005B25642E95
:102D3000322E315D20094144445209307825303229
:102D400058095458093078253032580952580930FA
:102D500078253032580D0A00F0B58BB00546CC20EE
:102D60008DF8180001208DF8190000208DF81A0048
:102D700014218DF81B1005218DF81C108DF81D00F5
:102D80002A46691C1CA0FEF74FFC002406AEA21DBB
:102D9000335D691C23A0FEF747FC641C062CF6DBA0
:102DA00006222B46114606A801F0FAF906222B4608
:102DB000114602A801F012F92B46062202A906A824
:102DC00000F0F0F828B1691C20A0FEF72DFC0BB034
:102DD000F0BD691C2BA0FEF727FC002402AFA21D4A
:102DE000385D0090335D691C32A0FEF71DFC641C49
:102DF000062CF4DB0BB0F0BD5B25642E312E305D6C
:102E0000204C54433639353220617578696C6C61D9
:102E100072792025642053525120436F6E66696792
:102E20003A0D0A005B25642E312E305D20094144A5
:102E30004452093078253032580956414C554509DD
:102E40003078253032580D0A000000005B25642ED2
:102E5000312E315D2053657474696E67207375631C
:102E60006365737366756C2E20436F6E736973743C
:102E7000656E63792076657269666965642E0D0AF0
:102E8000000000005B25642E312E315D20536574F7
:102E900074696E67206572726F722E20436F6E7355
:102EA000697374656E6379206E6F74206D65742E1E
:102EB0000D0A00005B25642E312E315D200941444E
:102EC0004452093078253032580954580930782551
:102ED000303258095258093078253032580D0A00DE
:102EE00070B504462146382001F099F8054615F0E2
:102EF000020F06D02B462246611C0648FEF794FBC3
:102F000005E02B462246611C03A0FEF78DFB2846F8
:102F100070BD00005C4500085B25642E302E305DDE
:102F2000204C54433639353220617578696C6C61B8
:102F30007279202564204E4F542064657465637453
:102F400065642E204F75747075743A203078253082
:102F500032580D0A0000000010B51148FEF764FB5E
:102F600001220021032001F038F902220021032070
:102F700001F033F901220021042001F02EF9022290
:102F80000021042001F029F9012208210B2001F081
:102F900024F902220821BDE810400B2001F01DB9E0
:102FA0000C45000830B44FF0000C0023002A0ADD65
:102FB000C45CCD5CAC4203D00CF1010C0CF0FF0CF6
:102FC0005B1C9342F4DBBCF1000F02D030BC00204C
:102FD000704730BC0120704770B504460D4621464D
:102FE000002001F01CF810F0150F07D025B1224683
:102FF000611C07A0FEF718FB012070BD2DB1034630
:103000002246611C0DA0FEF70FFB002070BD0000E2
:103010005B25642E302E305D204C544336393532DA
:1030200020617578696C6C61727920256420535435
:103030004154204F4B2E0D0A000000005B25642EEA
:10304000302E305D204C544336393532206175784E
:10305000696C6C6172792025642053544154204579
:1030600052524F522E204F75747075743A2030783A
:10307000253032580D0A000010B50AA0FEF7D4FA28
:10308000002201210B2001F0A8F80120FDF7F6F83D
:10309000002211460B2001F0A0F8BDE810400CA062
:1030A000FEF7C2BA5B342E302E305D20537461724D
:1030B00074696E6720706572666F726D20737973C4
:1030C00072656620726571756573742E2E2E000010
:1030D0000946696E69736865642E0D0A0000000078
:1030E00010B52CA0FEF7A0FA002280210D2001F0DF
:1030F00074F80022C021112001F06FF80022802115
:10310000152001F06AF80022C021192001F065F8AD
:10311000002201210B2001F060F80A20FDF7AEF833
:10312000002211460B2001F058F8002211460D2014
:1031300001F053F800221146152001F04EF800224C
:103140000C210B2001F049F80A20FDF797F802E066
:103150000120FDF793F801210846FFF73DFF002805
:10316000F6D001210220FFF737FF0028F0D000221F
:1031700001210B2001F031F80A20FDF77FF8002231
:1031800011460B2001F029F8BDE810400EA0FEF713
:103190004BBA00005B342E302E305D2053746172C8
:1031A00074696E672073796E63696E67206D6173F1
:1031B00074657220616E6420617578696C6C6172EF
:1031C0006965732E2E2E00000946696E6973686565
:1031D000642E0D0A0000000070B588B008208DF83C
:1031E000100002208DF8110000208DF81200FF2041
:1031F0008DF813003F208DF814001AA0FEF714FA82
:10320000002404AD611C2A5D1FA0FEF70DFA641CAA
:10321000052CF7DB00230522012104A800F0C0FFE4
:10322000002305220121684600F0D8FE05226946E8
:1032300004A800F019FC20B11CA0FEF7F5F908B0B5
:1032400070BD27A0FEF7F0F900246E462A5D335DBD
:10325000611C2FA0FEF7E8F9641C052CF6DB08B012
:1032600070BD00005B312E302E305D204C54433653
:1032700039353320476C6F62616C20436F6E66692D
:10328000673A0D0A000000005B312E302E305D20C1
:103290000941444452093078253032580956414C8E
:1032A0005545093078253032580D0A005B312E30F3
:1032B0002E315D2053657474696E67207375636386
:1032C00065737366756C2E20436F6E7369737465D6
:1032D0006E63792076657269666965642E0D0A00F1
:1032E0005B312E302E315D2053657474696E67201A
:1032F0006572726F722E20436F6E73697374656EA0
:103300006379206E6F74206D65742E0D0A000000C5
:103310005B312E302E315D20094144445209307812
:10332000253032580954580930782530325809521E
:1033300058093078253032580D0A00002DE9F04741
:1033400088B000278DF810704FF080088DF811803C
:103350008DF812708DF8137073A0FEF765F90024D4
:1033600004AD04F10C012A5D77A0FEF75DF9641C41
:10337000042CF6DB002304220C2104A800F010FF2B
:10338000002304220C21684600F028FE042269462E
:1033900004A800F069FB6E4618B174A0FEF744F96A
:1033A0000DE07FA0FEF740F9002404F10C01335D2D
:1033B0002A5D87A0FEF738F9641C042CF5DB8DF834
:1033C00010704FF0C0098DF811904FF00E0A8DF873
:1033D00012A08DF8137089A0FEF726F9002404F1DD
:1033E00010012A5D8DA0FEF71FF9641C042CF6DB8A
:1033F00000230422102104A800F0D2FE002304229E
:103400001021684600F0EAFD0422694604A800F095
:103410002BFB18B18AA0FEF707F90DE095A0FEF787
:1034200003F9002404F11001335D2A5D9DA0FEF72D
:10343000FBF8641C042CF5DB8DF810708DF81180FE
:103440008DF812708DF81370A1A0FEF7EDF800242E
:1034500004F114012A5DA6A0FEF7E6F8641C042C12
:10346000F6DB00230422142104A800F099FE0023B7
:1034700004221421684600F0B1FD0422694604A824
:1034800000F0F2FA18B1A3A0FEF7CEF80DE0AEA05E
:10349000FEF7CAF8002404F11401335D2A5DB6A0DA
:1034A000FEF7C2F8641C042CF5DB8DF810708DF863
:1034B00011908DF812A08DF81370BAA0FEF7B4F831
:1034C000002404F118012A5DBEA0FEF7ADF8641CCB
:1034D000042CF6DB00230422182104A800F060FE6F
:1034E000002304221821684600F078FD0422694672
:1034F00004A800F0B9FA28B1BBA0FEF795F808B00F
:10350000BDE8F087C5A0FEF78FF8002404F118018C
:10351000335D2A5DCDA0FEF787F8641C042CF5DB33
:1035200008B0BDE8F08700005B312E322E305D2000
:103530004C544336393533204F55545F3020436F58
:103540006E6669673A0D0A005B312E322E305D20BF
:103550000941444452093078253032580956414CCB
:103560005545093078253032580D0A005B312E322E
:103570002E315D2053657474696E672073756363C3
:1035800065737366756C2E20436F6E736973746513
:103590006E63792076657269666965642E0D0A002E
:1035A0005B312E322E315D2053657474696E672055
:1035B0006572726F722E20436F6E73697374656EDD
:1035C0006379206E6F74206D65742E0D0A00000003
:1035D0005B312E322E315D2009414444520930784E
:1035E000253032580954580930782530325809525C
:1035F00058093078253032580D0A00005B312E33DF
:103600002E305D204C544336393533204F55545FAE
:103610003120436F6E6669673A0D0A005B312E33C5
:103620002E305D200941444452093078253032580B
:103630000956414C5545093078253032580D0A005D
:103640005B312E332E315D2053657474696E6720B3
:103650007375636365737366756C2E20436F6E7349
:10366000697374656E6379207665726966696564ED
:103670002E0D0A005B312E332E315D20536574749C
:10368000696E67206572726F722E20436F6E736968
:103690007374656E6379206E6F74206D65742E0D82
:1036A0000A0000005B312E332E315D200941444475
:1036B000520930782530325809545809307825306D
:1036C0003258095258093078253032580D0A000016
:1036D0005B312E342E305D204C5443363935332047
:1036E0004F55545F3220436F6E6669673A0D0A008A
:1036F0005B312E342E305D2009414444520930782C
:10370000253032580956414C55450930782530321C
:10371000580D0A005B312E342E315D2053657474D0
:10372000696E67207375636365737366756C2E20AD
:10373000436F6E73697374656E6379207665726921
:10374000666965642E0D0A005B312E342E315D20D2
:1037500053657474696E67206572726F722E2043B0
:103760006F6E73697374656E6379206E6F74206D0C
:1037700065742E0D0A0000005B312E342E315D2061
:1037800009414444520930782530325809545809C7
:10379000307825303258095258093078253032585F
:1037A0000D0A00005B312E352E305D204C5443361F
:1037B000393533204F55545F3320436F6E66696748
:1037C0003A0D0A005B312E352E305D20094144440C
:1037D00052093078253032580956414C5545093048
:1037E00078253032580D0A005B312E352E315D20A0
:1037F00053657474696E672073756363657373666C
:10380000756C2E20436F6E73697374656E637920D7
:1038100076657269666965642E0D0A005B312E3526
:103820002E315D2053657474696E67206572726F06
:10383000722E20436F6E73697374656E6379206EA8
:103840006F74206D65742E0D0A0000005B312E35FB
:103850002E315D20094144445209307825303258D8
:1038600009545809307825303258095258093078AF
:10387000253032580D0A000070B588B013208DF83D
:10388000100000208DF811001AA0FDF7CDFE0024D5
:1038900004AD04F10A012A5D1EA0FDF7C5FE641CFB
:1038A000022CF6DB002302220A2104A800F078FC97
:1038B000002302220A21684600F090FB022269469A
:1038C00004A800F0D1F820B11BA0FDF7ADFE08B0B0
:1038D00070BD26A0FDF7A8FE00246E462A5D335D6C
:1038E00004F10A012DA0FDF79FFE641C022CF5DBFC
:1038F00008B070BD5B312E312E305D204C54433604
:103900003935332053525120436F6E6669673A0D43
:103910000A0000005B312E312E305D200941444405
:1039200052093078253032580956414C55450930F6
:1039300078253032580D0A005B312E312E315D2052
:1039400053657474696E672073756363657373661A
:10395000756C2E20436F6E73697374656E63792086
:1039600076657269666965642E0D0A005B312E31D9
:103970002E315D2053657474696E67206572726FB5
:10398000722E20436F6E73697374656E6379206E57
:103990006F74206D65742E0D0A0000005B312E31AE
:1039A0002E315D2009414444520930782530325887
:1039B000095458093078253032580952580930785E
:1039C000253032580D0A000010B50021382000F0D3
:1039D00026FB044614F0020F04D0214604A0FDF794
:1039E00023FE03E0214612A0FDF71EFE204610BD77
:1039F0005B312E302E305D204C54433639357820E3
:103A00006D61737465722064657465637465642E9A
:103A10002056657273696F6E20616E6420726576E0
:103A20006973696F6E3A203078253032580D0A007C
:103A30005B312E302E305D204C54433639357820A2
:103A40006D6173746572204E4F54206465746563B4
:103A50007465642E204F75747075743A2030782523
:103A60003032580D0A00000030B44FF0000C002333
:103A7000002A0ADDC45CCD5CAC4203D00CF1010C21
:103A80000CF0FF0C5B1C9342F4DBBCF1000F02D086
:103A900030BC0020704730BC0120704710B50021B9
:103AA000084600F0BCFA044614F0040F03D005A049
:103AB000FDF7BAFD03E021460BA0FDF7B5FD20465A
:103AC00010BD00005B312E302E305D204C5443364B
:103AD000393578206D61737465722056434F204FDD
:103AE0004B2E0D0A000000005B312E302E305D2081
:103AF0004C544336393578206D61737465722056A5
:103B0000434F204552524F522E204F75747075749A
:103B10003A203078253032580D0A0000ADF5187D76
:103B20000020FDF7E3FAFCF75DFEC148FDF762F8FF
:103B3000BF484FF47A714068B0FBF1F0401E00249A
:103B4000B0F1807F08D24FF0E0214861B94AF020FF
:103B500010708C6107200861FCF790FCB64E4FF4A2
:103B600080613046FCF702FE04213046FCF7FEFD82
:103B7000B24D2C7001210020FDF768FAB0490C709D
:103B8000B048FDF751FDB0A0FDF74EFDB7A0FDF721
:103B90004BFD00F00BFAFEF71FFCFFF77FFFFFF76E
:103BA00013FFFFF719FBFFF767FEFFF7C7FB0120C5
:103BB000FFF796F901210846FFF70EFA40F2FF7170
:103BC0000120FEF7DFFD0120FFF7C6F800231A46AB
:103BD00019460120FEF7D6FE0023022219460120D5
:103BE000FEF7D0FE0023042219460120FEF7CAFE8C
:103BF0000023052219460120FEF7C4FE00230822F7
:103C000019460120FEF7BEFE012214211046FEF7E0
:103C1000AFFF032214210120FEF7AAFF0622142180
:103C20000120FEF7A5FF072214210120FEF7A0FFC7
:103C3000092214210120FEF79BFF0A2214210120F2
:103C4000FEF796FF0220FFF74BF901210220FFF754
:103C5000C3F940F2FE710220FEF794FD0220FFF747
:103C60007BF800231A4619460220FEF78BFE00233C
:103C7000022219461046FEF785FE0023042219464B
:103C80000220FEF77FFE0023052219460220FEF7E0
:103C900079FE0023082219460220FEF773FE002356
:103CA000092219460220FEF76DFE0122142102208E
:103CB000FEF75EFF032214210220FEF759FF0622C1
:103CC00014210220FEF754FF072214210220FEF7E0
:103CD0004FFF4FF4FA60FCF7D1FAFFF701FA012029
:103CE000FCF7CCFAFFF738F9412185A8FDF702FF70
:103CF000422172A8FDF7FEFE43215FA8FDF7FAFE00
:103D000044214CA8FDF7F6FE452139A8FDF7F2FE47
:103D1000462126A8FDF7EEFE472113A8FDF7EAFE8F
:103D200048216846FDF7E6FE57A0FDF77DFC00221E
:103D3000511E85A8FEF712F959A0FDF775FC60A089
:103D4000FDF772FC0022511E72A8FEF707F954A07D
:103D5000FDF76AFC60A0FDF767FC0022511E5FA81A
:103D6000FEF7FCF84EA0FDF75FFC61A0FDF75CFCE0
:103D70000022511E4CA8FEF7F1F849A0FDF754FCB3
:103D800063A0FDF751FC0022511E39A8FEF7E6F8AA
:103D900043A0FDF749FC64A0FDF746FC0022511E3C
:103DA00026A8FEF7DBF83EA0FDF73EFC64A0FDF779
:103DB0003BFC0022511E13A8FEF7D0F838A0FDF7F7
:103DC00033FC65A0FDF730FC0022511E6846FEF76B
:103DD000C5F833A0FDF728FC4CA8FDF777FE0421B9
:103DE0003046FCF789FC3220FCF748FA04213046C3
:103DF000FCF7BCFC3220FCF741FA3220FCF73EFA1B
:103E000029780029F9D05AA0FDF70EFC4FF4806103
:103E10003046FCF771FCFFF72FF93220FCF72EFA41
:103E20004FF480613046FCF7A1FC2C70E5E7000000
:103E30007801002023ED00E000000240380000205F
:103E400030000020C04400085B305D2052756E2DAC
:103E500074696D6520636865636B696E6720656E64
:103E600061626C656420200A0D0000005B305D20FB
:103E700050726F6772616D20537461727465642053
:103E80002E2E2E20200A0D005B2A5D204144432067
:103E900041206F75747075743A20200A0D0000007F
:103EA0002A2A2A2A2A2A2A2A2A2A2A2A2A2A2A2A72
:103EB0002A2A2A2A2A2A2A2A2A2A2A20200A0D00DD
:103EC0005B2A5D204144432042206F7574707574F5
:103ED0003A20200A0D0000005B2A5D204144432067
:103EE00043206F75747075743A20200A0D0000002D
:103EF0005B2A5D2041444320442070617468204166
:103F0000206F75747075743A20200A0D000000004F
:103F10005B2A5D204144432045206F7574707574A1
:103F20003A20200A0D0000005B2A5D204144432016
:103F300046206F75747075743A20200A0D000000D9
:103F40005B2A5D204144432047206F75747075746F
:103F50003A20200A0D0000005B2A5D2041444320E6
:103F600048206F75747075743A20200A0D000000A7
:103F7000666F7263652073796E6320666C6167207B
:103F80007265636F72646564210D0A0010B50A469C
:103F900001781046FEF7E4F9002010BD10B50A467E
:103FA00001781046FEF7F4FA002010BD10B500F0BD
:103FB0004DF840210648FCF7D9FB80210548FCF765
:103FC000D5FBBDE810404FF400710348FCF7CEBBB1
:103FD0000004024000080240000002402DE9F041C8
:103FE00005460C4616461F46384600F025F90120C6
:103FF00040EA4400C0B2394600F0B8F80024002E70
:1040000007DD3946FF2000F0B1F82855641CB442A2
:10401000F7DB384600F0F6F80020BDE8F08170B517
:1040200004460D46284600F007F9012040EA440006
:10403000C0B2294600F09AF82946FF2000F096F811
:104040000446284600F0DEF8204670BD2DE9F04712
:1040500088B001210720FCF761FD01210803FCF76E
:10406000A5FD4FF02008CDF8188002268DF81C60C1
:104070008DF81D6000248DF81E4001258DF81F501D
:10408000DFF8D89006A94846FCF714FA40270697AF
:1040900006A94846FCF70EFA4FF0800ACDF818A0A2
:1040A00006A94846FCF706FA06978DF81C508DF8CD
:1040B0001E408DF81F508DF81D6006A92848FCF79A
:1040C000F9F9CDF818A08DF81C508DF81E408DF828
:1040D0001F508DF81D6006A92248FCF7EBF96F020E
:1040E00006978DF81C508DF81E408DF81F508DF8E6
:1040F0001D6006A94846FCF7DDF905221146484631
:10410000FCF770FA052206214846FCF76BFA0522F7
:1041100007214846FCF766FAADF804404FF4827078
:10412000ADF80600ADF80840ADF80A40ADF80C4017
:10413000ADF80E70ADF81080ADF812400720ADF864
:104140001400094C01A92046FCF78EFE01212046EF
:10415000FCF7F0FD08B0BDE8F08700000000024069
:1041600000040240000802400030014070B50546DE
:104170000A4C02212046FCF709FE0028F9D0294606
:104180002046FCF755FE01212046FCF7FFFD0028E4
:10419000F9D02046FCF732FEC0B270BD00300140BD
:1041A0002DE9F04106460C4615461F46384600F0FC
:1041B00043F86006000E3946FFF7D8FF0024002DB3
:1041C00006DD305D3946FFF7D1FF641CAC42F8DBF9
:1041D0003846BDE8F04100F015B870B504460E460B
:1041E0001546284600F028F86006000E2946FFF71D
:1041F000BDFF29463046FFF7B9FF2846BDE87040AD
:10420000AFF30080002807D0012809D002280BD185
:1042100001020648FCF7AABA40210548FCF7A6BAF5
:1042200080210448FCF7A2BA704700000000024059
:104230000004024000080240002807D0012809D0ED
:1042400002280BD101020648FCF756BA4021054866
:10425000FCF752BA80210448FCF74EBA70470000C0
:10426000000002400004024000080240020D280243
:1042700003070700200000200020040008000000C1
:104280000100000004000000000002000100000026
:10429000010000000000000001000000000000001C
:1042A000000000000000000000000000010000000D
:1042B00000000000000000000000000000000000FE
:1042C00000000000000000000000000000000000EE
:1042D0000001020508090A0B0D0E10141518191A11
:1042E0001B1C1D1E1F20213A404142454748494A98
:1042F0004B4C5E5F60616263646566676E6F707190
:10430000727374757677787982838BA8EEEFF300F9
:104310002E2E5C2E2E5C2E2E5C2E2E5C4C69627234
:1043200061726965735C53544D33324C3178785FF8
:104330005374645065726970685F4472697665721F
:104340005C7372635C73746D33326C3178785F6563
:104350007874692E630000002E2E5C2E2E5C2E2EAB
:104360005C2E2E5C4C69627261726965735C535499
:104370004D33324C3178785F537464506572697094
:10438000685F4472697665725C7372635C73746DA6
:1043900033326C3178785F6770696F2E630000008C
:1043A0002E2E5C2E2E5C2E2E5C2E2E5C4C696272A4
:1043B00061726965735C53544D33324C3178785F68
:1043C0005374645065726970685F4472697665728F
:1043D0005C7372635C73746D33326C3178785F72C6
:1043E00063632E63000000002E2E5C2E2E5C2E2EAA
:1043F0005C2E2E5C4C69627261726965735C535409
:104400004D33324C3178785F537464506572697003
:10441000685F4472697665725C7372635C73746D15
:1044200033326C3178785F7370692E63000000005E
:104430002E2E5C2E2E5C2E2E5C2E2E5C4C69627213
:1044400061726965735C53544D33324C3178785FD7
:104450005374645065726970685F447269766572FE
:104460005C7372635C73746D33326C3178785F7334
:1044700079736366672E63002E2E5C2E2E5C2E2EC3
:104480005C2E2E5C4C69627261726965735C535478
:104490004D33324C3178785F537464506572697073
:1044A000685F4472697665725C7372635C73746D85
:1044B00033326C3178785F75736172742E630000EB
:1044C0000D0A5B305D2053544D33326C31787820C7
:1044D0004669726D77617265204C696272617279AA
:1044E00020636F6D70696C6564207769746820461D
:1044F000554C4C204153534552542066756E63749D
:10450000696F6E2E2E2E200A0D0000005B2D2E2DC1
:104510002E2D5D2050757474696E67206175786901
:104520006C6C617269657320746F2066756C6C2D9C
:10453000706F776572206D6F646520616E642069AD
:104540006E20746865207379737265662072657178
:10455000206D6F64652E2E2E0D0A00005B25642EE3
:10456000302E305D204C5443363935322061757819
:10457000696C6C617279202564206465746563746C
:1045800065642E2056657273696F6E20616E6420BB
:104590007265766973696F6E3A20307825303258CB
:1045A0000D0A0000C445000800000020780100004A
:1045B000220200080C4600087801002020040000B8
:1045C00058160008400A030406080C101820302D65
:1045D000010203040455060708091302401A0804DF
:1045E00012443A400C390401FF01143A0105700BE2
:1045F0006164393235302D6C70632B03221932F02F
:0C4600002A10231C01010107392C2100A5
:0400000508000125C9
:00000001FF
